{
  "_format": "hh-sol-artifact-1",
  "contractName": "ChainlinkPriceOracle",
  "sourceName": "contracts/oracles/ChainlinkPriceOracle.sol",
  "abi": [
    {
      "inputs": [],
      "stateMutability": "nonpayable",
      "type": "constructor"
    },
    {
      "inputs": [
        {
          "internalType": "address",
          "name": "owner",
          "type": "address"
        }
      ],
      "name": "OwnableInvalidOwner",
      "type": "error"
    },
    {
      "inputs": [
        {
          "internalType": "address",
          "name": "account",
          "type": "address"
        }
      ],
      "name": "OwnableUnauthorizedAccount",
      "type": "error"
    },
    {
      "anonymous": false,
      "inputs": [
        {
          "indexed": true,
          "internalType": "address",
          "name": "token",
          "type": "address"
        },
        {
          "indexed": false,
          "internalType": "uint256",
          "name": "price",
          "type": "uint256"
        },
        {
          "indexed": false,
          "internalType": "string",
          "name": "reason",
          "type": "string"
        }
      ],
      "name": "EmergencyPriceSet",
      "type": "event"
    },
    {
      "anonymous": false,
      "inputs": [
        {
          "indexed": true,
          "internalType": "address",
          "name": "previousOwner",
          "type": "address"
        },
        {
          "indexed": true,
          "internalType": "address",
          "name": "newOwner",
          "type": "address"
        }
      ],
      "name": "OwnershipTransferred",
      "type": "event"
    },
    {
      "anonymous": false,
      "inputs": [
        {
          "indexed": true,
          "internalType": "address",
          "name": "token",
          "type": "address"
        },
        {
          "indexed": true,
          "internalType": "address",
          "name": "feed",
          "type": "address"
        },
        {
          "indexed": false,
          "internalType": "string",
          "name": "symbol",
          "type": "string"
        }
      ],
      "name": "PriceFeedAdded",
      "type": "event"
    },
    {
      "anonymous": false,
      "inputs": [
        {
          "indexed": true,
          "internalType": "address",
          "name": "token",
          "type": "address"
        },
        {
          "indexed": true,
          "internalType": "address",
          "name": "feed",
          "type": "address"
        }
      ],
      "name": "PriceFeedUpdated",
      "type": "event"
    },
    {
      "anonymous": false,
      "inputs": [
        {
          "indexed": true,
          "internalType": "address",
          "name": "token",
          "type": "address"
        },
        {
          "indexed": false,
          "internalType": "uint256",
          "name": "lastUpdate",
          "type": "uint256"
        },
        {
          "indexed": false,
          "internalType": "uint256",
          "name": "heartbeat",
          "type": "uint256"
        }
      ],
      "name": "StalePriceDetected",
      "type": "event"
    },
    {
      "inputs": [],
      "name": "MAX_PRICE_DEVIATION",
      "outputs": [
        {
          "internalType": "uint256",
          "name": "",
          "type": "uint256"
        }
      ],
      "stateMutability": "view",
      "type": "function"
    },
    {
      "inputs": [],
      "name": "STALENESS_MULTIPLIER",
      "outputs": [
        {
          "internalType": "uint256",
          "name": "",
          "type": "uint256"
        }
      ],
      "stateMutability": "view",
      "type": "function"
    },
    {
      "inputs": [
        {
          "internalType": "address",
          "name": "token",
          "type": "address"
        },
        {
          "internalType": "address",
          "name": "feedAddress",
          "type": "address"
        },
        {
          "internalType": "uint256",
          "name": "heartbeat",
          "type": "uint256"
        },
        {
          "internalType": "uint8",
          "name": "decimals",
          "type": "uint8"
        },
        {
          "internalType": "string",
          "name": "symbol",
          "type": "string"
        }
      ],
      "name": "addPriceFeed",
      "outputs": [],
      "stateMutability": "nonpayable",
      "type": "function"
    },
    {
      "inputs": [
        {
          "internalType": "address",
          "name": "token",
          "type": "address"
        }
      ],
      "name": "disablePriceFeed",
      "outputs": [],
      "stateMutability": "nonpayable",
      "type": "function"
    },
    {
      "inputs": [
        {
          "internalType": "address",
          "name": "",
          "type": "address"
        }
      ],
      "name": "emergencyPrices",
      "outputs": [
        {
          "internalType": "uint256",
          "name": "",
          "type": "uint256"
        }
      ],
      "stateMutability": "view",
      "type": "function"
    },
    {
      "inputs": [
        {
          "internalType": "address",
          "name": "token",
          "type": "address"
        }
      ],
      "name": "getCircuitBreakerAnalysis",
      "outputs": [
        {
          "internalType": "bool",
          "name": "shouldTrigger",
          "type": "bool"
        },
        {
          "internalType": "uint256",
          "name": "priceChange",
          "type": "uint256"
        },
        {
          "internalType": "string",
          "name": "reason",
          "type": "string"
        }
      ],
      "stateMutability": "view",
      "type": "function"
    },
    {
      "inputs": [
        {
          "internalType": "address",
          "name": "token",
          "type": "address"
        }
      ],
      "name": "getPrice",
      "outputs": [
        {
          "internalType": "uint256",
          "name": "price",
          "type": "uint256"
        },
        {
          "internalType": "bool",
          "name": "isStale",
          "type": "bool"
        },
        {
          "internalType": "uint256",
          "name": "confidence",
          "type": "uint256"
        }
      ],
      "stateMutability": "view",
      "type": "function"
    },
    {
      "inputs": [
        {
          "internalType": "address",
          "name": "token",
          "type": "address"
        }
      ],
      "name": "getPriceAnalysis",
      "outputs": [
        {
          "internalType": "uint256",
          "name": "currentPrice",
          "type": "uint256"
        },
        {
          "internalType": "uint256[]",
          "name": "priceHistory",
          "type": "uint256[]"
        },
        {
          "internalType": "uint256",
          "name": "volatility",
          "type": "uint256"
        },
        {
          "internalType": "int8",
          "name": "trend",
          "type": "int8"
        }
      ],
      "stateMutability": "view",
      "type": "function"
    },
    {
      "inputs": [],
      "name": "owner",
      "outputs": [
        {
          "internalType": "address",
          "name": "",
          "type": "address"
        }
      ],
      "stateMutability": "view",
      "type": "function"
    },
    {
      "inputs": [
        {
          "internalType": "address",
          "name": "",
          "type": "address"
        }
      ],
      "name": "priceFeeds",
      "outputs": [
        {
          "internalType": "contract AggregatorV3Interface",
          "name": "feed",
          "type": "address"
        },
        {
          "internalType": "uint256",
          "name": "heartbeat",
          "type": "uint256"
        },
        {
          "internalType": "uint8",
          "name": "decimals",
          "type": "uint8"
        },
        {
          "internalType": "bool",
          "name": "isActive",
          "type": "bool"
        },
        {
          "internalType": "string",
          "name": "symbol",
          "type": "string"
        }
      ],
      "stateMutability": "view",
      "type": "function"
    },
    {
      "inputs": [],
      "name": "renounceOwnership",
      "outputs": [],
      "stateMutability": "nonpayable",
      "type": "function"
    },
    {
      "inputs": [
        {
          "internalType": "address",
          "name": "token",
          "type": "address"
        },
        {
          "internalType": "uint256",
          "name": "price",
          "type": "uint256"
        },
        {
          "internalType": "string",
          "name": "reason",
          "type": "string"
        }
      ],
      "name": "setEmergencyPrice",
      "outputs": [],
      "stateMutability": "nonpayable",
      "type": "function"
    },
    {
      "inputs": [
        {
          "internalType": "address",
          "name": "newOwner",
          "type": "address"
        }
      ],
      "name": "transferOwnership",
      "outputs": [],
      "stateMutability": "nonpayable",
      "type": "function"
    },
    {
      "inputs": [
        {
          "internalType": "address",
          "name": "token",
          "type": "address"
        },
        {
          "internalType": "uint256",
          "name": "proposedPrice",
          "type": "uint256"
        }
      ],
      "name": "validatePrice",
      "outputs": [
        {
          "internalType": "bool",
          "name": "isValid",
          "type": "bool"
        },
        {
          "internalType": "uint256",
          "name": "deviation",
          "type": "uint256"
        }
      ],
      "stateMutability": "view",
      "type": "function"
    }
  ],
  "bytecode": "0x6080806040523462000b5b57331562000b455760008054336001600160a01b0319821681178355916001600160a01b03909116907f8be0079c531659141344cd1fd0a4f28419497f9722a3daafe3b4186f6b6457e09080a36200006162000b80565b60078152661155120bd554d160ca1b60208201526200007f62000b60565b735f4ec3df9cbd43714fe2740f5e3616155c5b8419815260208101610e10815260408201600881526060830160018152608084019285845273c02aaa39b223fe8d0a0e5c4f27ead9083c756cc2600052600160205260406000209460018060a01b0390511660018060a01b031986541617855551600185015560ff6002850192511661ff0083549251151560081b169161ffff1916171790555180519060018060401b03821162000865576003830154600181811c9116801562000b3a575b60208210146200084457601f811162000aee575b50602090601f831160011462000a7a57600392916000918362000a6e575b50508160011b9160001990841b1c1916179101555b604051906020825280519081602084015260005b82811062000a5757735f4ec3df9cbd43714fe2740f5e3616155c5b841973c02aaa39b223fe8d0a0e5c4f27ead9083c756cc2600080516020620024dd83398151915286604081886000838284010152601f80199101168101030190a3620001ff62000b80565b6007815266109510cbd554d160ca1b60208201526200021d62000b60565b73f4030086522a5beea4988f8ca5b36dbc97bee88c815260208101610e108152604082016008815260608301600181526080840192858452732260fac5e5542a773aa44fbcfedf7c193bc2c599600052600160205260406000209460018060a01b0390511660018060a01b031986541617855551600185015560ff6002850192511661ff0083549251151560081b169161ffff1916171790555180519060018060401b03821162000865576003830154600181811c9116801562000a4c575b60208210146200084457601f811162000a00575b50602090601f83116001146200098c57600392916000918362000980575b50508160011b9160001990841b1c1916179101555b604051906020825280519081602084015260005b828110620009695773f4030086522a5beea4988f8ca5b36dbc97bee88c732260fac5e5542a773aa44fbcfedf7c193bc2c599600080516020620024dd83398151915286604081886000838284010152601f80199101168101030190a36200039d62000b80565b60088152671554d110cbd554d160c21b6020820152620003bc62000b60565b738fffffd4afb6115b954bd326cbe7b4ba576818f681526020810162015180815260408201600881526060830160018152608084019285845273a0b86a33e6417c1c83bf8b25c0b093fb2ee4e91d600052600160205260406000209460018060a01b0390511660018060a01b031986541617855551600185015560ff6002850192511661ff0083549251151560081b169161ffff1916171790555180519060018060401b03821162000865576003830154600181811c911680156200095e575b60208210146200084457601f811162000912575b50602090601f83116001146200089e57600392916000918362000892575b50508160011b9160001990841b1c1916179101555b604051906020825280519081602084015260005b8281106200087b57738fffffd4afb6115b954bd326cbe7b4ba576818f673a0b86a33e6417c1c83bf8b25c0b093fb2ee4e91d600080516020620024dd83398151915286604081886000838284010152601f80199101168101030190a36200053d62000b80565b60078152661110524bd554d160ca1b60208201526200055b62000b60565b73aed0c38402a5d19df6e4c03f4e2dced6e29c1ee98152610e10602080830191825260086040840181815260016060860181815260808701888152736b175474e89094c44da98b954eedeac495271d0f6000529190945294517f28c420d41601e064fc8cc12b320362ca54019acc8f163ced66d9dc6175c0882880546001600160a01b0319166001600160a01b039290921691909117905592517f28c420d41601e064fc8cc12b320362ca54019acc8f163ced66d9dc6175c088295591517f28c420d41601e064fc8cc12b320362ca54019acc8f163ced66d9dc6175c0882a8054925161ffff1990931660ff929092169190911791151590921b61ff00161790555180519091907f28c420d41601e064fc8cc12b320362ca54019acc8f163ced66d9dc6175c0882b906001600160401b03811162000865578154600181811c911680156200085a575b60208210146200084457601f8111620007f7575b506020601f82116001146200078c578192939460009262000780575b50508160011b916000199060031b1c19161790555b604051906020825280519081602084015260005b828110620007695773aed0c38402a5d19df6e4c03f4e2dced6e29c1ee9736b175474e89094c44da98b954eedeac495271d0f600080516020620024dd83398151915286604081886000838284010152601f80199101168101030190a360405161193c908162000ba18239f35b8060208092840101516040828701015201620006fd565b015190508480620006d4565b601f198216908360005260206000209160005b818110620007de57509583600195969710620007c4575b505050811b019055620006e9565b015160001960f88460031b161c19169055848080620007b6565b9192602060018192868b0151815501940192016200079f565b826000526020600020601f830160051c8101916020841062000839575b601f0160051c01905b8181106200082c5750620006b8565b600081556001016200081d565b909150819062000814565b634e487b7160e01b600052602260045260246000fd5b90607f1690620006a4565b634e487b7160e01b600052604160045260246000fd5b8060208092840101516040828701015201620004d7565b015190508580620004ae565b906003840160005260206000209160005b601f1985168110620008f95750918391600193600395601f19811610620008e0575b505050811b01910155620004c3565b015160001983861b60f8161c19169055858080620008d1565b91926020600181928685015181550194019201620008af565b600384016000526020600020601f840160051c81016020851062000956575b601f830160051c820181106200094957505062000490565b6000815560010162000931565b508062000931565b90607f16906200047c565b806020809284010151604082870101520162000337565b0151905085806200030e565b906003840160005260206000209160005b601f1985168110620009e75750918391600193600395601f19811610620009ce575b505050811b0191015562000323565b015160001983861b60f8161c19169055858080620009bf565b919260206001819286850151815501940192016200099d565b600384016000526020600020601f840160051c81016020851062000a44575b601f830160051c8201811062000a37575050620002f0565b6000815560010162000a1f565b508062000a1f565b90607f1690620002dc565b806020809284010151604082870101520162000199565b01519050858062000170565b906003840160005260206000209160005b601f198516811062000ad55750918391600193600395601f1981161062000abc575b505050811b0191015562000185565b015160001983861b60f8161c1916905585808062000aad565b9192602060018192868501518155019401920162000a8b565b600384016000526020600020601f840160051c81016020851062000b32575b601f830160051c8201811062000b2557505062000152565b6000815560010162000b0d565b508062000b0d565b90607f16906200013e565b631e4fbdf760e01b815260006004820152602490fd5b600080fd5b6040519060a082016001600160401b038111838210176200086557604052565b60408051919082016001600160401b03811183821017620008655760405256fe608080604052600436101561001357600080fd5b60003560e01c9081631a97300d14610af55750806341976e0914610abd57806344af1f11146109be57806356a1c65014610662578063715018a61461060957806387567416146105c25780638da5cb5b1461059957806396f277b71461057c5780639dcb511a146104f6578063bbf56fb6146101e3578063dd15e73a1461019d578063e775b69214610181578063f2fde38b146100f35763fd45a433146100b957600080fd5b346100ee5760403660031901126100ee5760406100e06100d7610b2b565b602435906112ef565b825191151582526020820152f35b600080fd5b346100ee5760203660031901126100ee5761010c610b2b565b610114610d0e565b6001600160a01b0390811690811561016857600054826bffffffffffffffffffffffff60a01b821617600055167f8be0079c531659141344cd1fd0a4f28419497f9722a3daafe3b4186f6b6457e0600080a3005b604051631e4fbdf760e01b815260006004820152602490fd5b346100ee5760003660031901126100ee57602060405160028152f35b346100ee5760203660031901126100ee576101b6610b2b565b6101be610d0e565b6001600160a01b03166000908152600160205260409020600201805461ff0019169055005b346100ee5760a03660031901126100ee576101fc610b2b565b6001600160a01b039060243582811691908290036100ee576064359060ff82168092036100ee5767ffffffffffffffff906084358281116100ee57610245903690600401610b41565b959092610250610d0e565b8087116104775760405193602093601f1998610273868b601f8401160188610c46565b80875236818401116100ee5785816000928795838b013788010152169485156104c157861561048d5760036040516102aa81610bf1565b888152858101926044358452604082019081526060820160019485825260808401978a89528b600052868a5260406000209451166bffffffffffffffffffffffff60a01b855416178455518584015560ff6002840192511661ff0083549251151560081b169161ffff191617179055019251978851928311610477576103308454610bb7565b601f811161042e575b508490601f84116001146103ae5750829182917f17b3ebea3094a9c48145f6945eae1e3fcf716c05bf4de1e7552ed8b3680bf0ac98999a6000946103a3575b50501b916000199060031b1c19161790555b61039e604051928284938452830190610b92565b0390a3005b015192508a80610378565b839293169084600052856000209160005b818110610419575099837f17b3ebea3094a9c48145f6945eae1e3fcf716c05bf4de1e7552ed8b3680bf0ac999a9b10610400575b505050811b01905561038a565b015160001960f88460031b161c191690558880806103f3565b8b8301518455928501929187019187016103bf565b8460005285600020601f850160051c81019187861061046d575b601f0160051c019083905b828110610461575050610339565b60008155018390610453565b9091508190610448565b634e487b7160e01b600052604160045260246000fd5b60405162461bcd60e51b815260048101859052600c60248201526b125b9d985b1a59081999595960a21b6044820152606490fd5b60405162461bcd60e51b815260048101859052600d60248201526c24b73b30b634b2103a37b5b2b760991b6044820152606490fd5b346100ee5760203660031901126100ee576001600160a01b0380610518610b2b565b16600052600160205260406000209081541661057860018301549260ff610546600360028401549301610c68565b9160405195869586526020860152818116604086015260081c161515606084015260a0608084015260a0830190610b92565b0390f35b346100ee5760003660031901126100ee5760206040516103e88152f35b346100ee5760003660031901126100ee576000546040516001600160a01b039091168152602090f35b346100ee5760203660031901126100ee576105786105e66105e1610b2b565b6114a0565b604093919351938493151584526020840152606060408401526060830190610b92565b346100ee5760003660031901126100ee57610622610d0e565b600080546001600160a01b0319811682556001600160a01b03167f8be0079c531659141344cd1fd0a4f28419497f9722a3daafe3b4186f6b6457e08280a3005b346100ee5760203660031901126100ee57600461067d610b2b565b6001600160a01b0316600090815260016020526040808220905190829081906106f5906106a985610bf1565b60018060a01b038154168552600181015460208601526106e8600360028301549260ff8416604089015260ff606089019460081c161515845201610c68565b6080860152511515610d3a565b60405161070181610c0d565b600a815261014093843660208401376040519461071d86610c0d565b600a86523660208701378051604051633fabe5a360e21b81529760a09189919082906001600160a01b03165afa9687156109b25760009761098d575b5060009360005b600a811080610983575b15610977576001600160501b0381166001600160501b038a168181106108e25784516001600160a01b0316916001600160501b03818303116108cc57604051639a6fc8f560e01b815291036001600160501b031660048201529060a090829060249082905afa600080916000918160009560009361088e575b506107fb5750505050506107f69061145a565b610760565b600084139283610884575b8361087a575b5082610862575b505080610858575b61082b575b50506107f69061145a565b96610850916107f6939861083f838961148c565b5261084a828b61148c565b5261145a565b95908a610820565b504282111561081b565b6001600160501b039192508116911610158c80610813565b151592508e61080c565b8515159350610806565b9350945050506108b6915060a03d60a0116108c5575b6108ae8183610c46565b810190610d9a565b9094929391929091908f6107e3565b503d6108a4565b634e487b7160e01b600052601160045260246000fd5b5050509650509250905b8061094b575b506040519260808401948452608060208501528251809552602060a0850193016000955b808710610933575050839450604084015260000b60608301520390f35b90936020806001928751815201950196019590610916565b935061095682611469565b5193600381106108f25790508161096e929350611785565b919091846108f2565b509650509250906108ec565b50600a861061076a565b6109a791975060a03d60a0116108c5576108ae8183610c46565b505050509587610759565b6040513d6000823e3d90fd5b346100ee5760603660031901126100ee576109d7610b2b565b60243560443567ffffffffffffffff81116100ee576109fa903690600401610b41565b92610a03610d0e565b8215610a78577f25cd8ce51b46c48577da8bc5c0060b1e48ed85b13b6cfef51e7a94268e1096909260609160018060a01b0316948560005260026020528160406000205580604051948593845260406020850152816040850152848401376000828201840152601f01601f19168101030190a2005b60405162461bcd60e51b815260206004820152601760248201527f496e76616c696420656d657267656e63792070726963650000000000000000006044820152606490fd5b346100ee5760203660031901126100ee576060610ae0610adb610b2b565b610e7e565b90604051928352151560208301526040820152f35b346100ee5760203660031901126100ee576020906001600160a01b03610b19610b2b565b16600052600282526040600020548152f35b600435906001600160a01b03821682036100ee57565b9181601f840112156100ee5782359167ffffffffffffffff83116100ee57602083818601950101116100ee57565b60005b838110610b825750506000910152565b8181015183820152602001610b72565b90602091610bab81518092818552858086019101610b6f565b601f01601f1916010190565b90600182811c92168015610be7575b6020831014610bd157565b634e487b7160e01b600052602260045260246000fd5b91607f1691610bc6565b60a0810190811067ffffffffffffffff82111761047757604052565b610160810190811067ffffffffffffffff82111761047757604052565b6040810190811067ffffffffffffffff82111761047757604052565b90601f8019910116810190811067ffffffffffffffff82111761047757604052565b9060405191826000825492610c7c84610bb7565b908184526001948581169081600014610ceb5750600114610ca8575b5050610ca692500383610c46565b565b9093915060005260209081600020936000915b818310610cd3575050610ca693508201013880610c98565b85548884018501529485019487945091830191610cbb565b915050610ca694506020925060ff191682840152151560051b8201013880610c98565b6000546001600160a01b03163303610d2257565b60405163118cdaa760e01b8152336004820152602490fd5b15610d4157565b60405162461bcd60e51b815260206004820152601860248201527f50726963652066656564206e6f7420617661696c61626c6500000000000000006044820152606490fd5b51906001600160501b03821682036100ee57565b908160a09103126100ee57610dae81610d86565b91602082015191604081015191610dcc608060608401519301610d86565b90565b919082039182116108cc57565b818102929181159184041417156108cc57565b8115610df9570490565b634e487b7160e01b600052601260045260246000fd5b600060443d10610dcc57604051600319913d83016004833e815167ffffffffffffffff918282113d602484011117610e6d57818401948551938411610e75573d85010160208487010111610e6d5750610dcc92910160200190610c46565b949350505050565b50949350505050565b60a090600180831b0380911690600093828552600194602093868552604093848320908551610eac81610bf1565b818354168152610ef58a84015493898301948552610ee8600360028301549260ff84168c87015260ff606087019460081c161515845201610c68565b6080840152511515610d3a565b5116855197888092633fabe5a360e21b825260049a8b915afa90849185928682889489946112c5575b50611058575050505050509083918160033d11611049575b6308c379a014610fa6575b815260028552205480610f9b5750505162461bcd60e51b815291820152602160248201527f436861696e6c696e6b3a205072696365206665656420756e617661696c61626c6044820152606560f81b606482015260849150fd5b949350600592509050565b909150610fb1610e0f565b80610fbf5750908391610f41565b94969291849181526002885220548061103c57505050908161101e60316110389451809470021b430b4b73634b7359032b93937b91d1607d1b8983015261100e815180928b8686019101610b6f565b8101036011810185520183610c46565b5193849362461bcd60e51b85528401526024830190610b92565b0390fd5b9550909350600a92509050565b508682803e815160e01c610f36565b909192955086849b9799949c989a959c131561128257851561123f57156111fc576001600160501b038091169116106111bb5782421061117a57505061109e9042610dcf565b95805180841b90808204600214901517156111675787119687156110c6575050505091929190565b8151939492938082116110e157505050505050606491929190565b6110ea91610dcf565b9051908180048514821517156111545781811061110c57505050505b91929190565b9091929350606381029080820460631490151715611154579061112e91610def565b6064039160648311611141575050611106565b634e487b7160e01b825260119052602490fd5b634e487b7160e01b835260118452602483fd5b634e487b7160e01b855260118352602485fd5b5162461bcd60e51b81529283015250601b60248201527f436861696e6c696e6b3a204675747572652074696d657374616d7000000000006044820152606490fd5b5162461bcd60e51b81529283015250601b60248201527f436861696e6c696e6b3a205374616c6520726f756e64206461746100000000006044820152606490fd5b825162461bcd60e51b8152808701859052601d60248201527f436861696e6c696e6b3a20496e76616c69642073746172742074696d650000006044820152606490fd5b835162461bcd60e51b8152808801869052601c60248201527f436861696e6c696e6b3a20496e76616c69642074696d657374616d70000000006044820152606490fd5b835162461bcd60e51b8152808801869052601860248201527f436861696e6c696e6b3a20496e76616c696420707269636500000000000000006044820152606490fd5b9350945050506112e3915060a03d81116108c5576108ae8183610c46565b92949093919038610f1e565b919091821561141c576040516341976e0960e01b81526001600160a01b039091166004820152606081602481305afa9283156109b257600091829083956113cb575b506113b157605084106113be5781156113b15781818111156113a2579061135791610dcf565b905b612710918281029281840414901517156108cc5761137691610def565b91605f811061138b575061012c5b8211159190565b605a1161139a57610190611384565b6101f4611384565b6113ab91610dcf565b90611359565b5050905060009061271090565b5050905060009061270f90565b9450506060843d8211611414575b816113e660609383610c46565b8101031261141057835193602081015192831515840361140d575060400151939138611331565b80fd5b5080fd5b3d91506113d9565b60405162461bcd60e51b8152602060048201526016602482015275496e76616c69642070726f706f73656420707269636560501b6044820152606490fd5b60001981146108cc5760010190565b8051156114765760200190565b634e487b7160e01b600052603260045260246000fd5b80518210156114765760209160051b010190565b6040805163056a1c6560e41b81526001600160a01b039092166004830152600092606092909184918291908281602481305afa92831561176d578091819082956116a6575b5060028151106116715780516001101561165d57830151918261150d575b5050505050929190565b93975091955091828082111561162d5761152691610dcf565b906127109182810292818404149015171561161957509061154691610def565b935b6107d08511156115975750506001915161156181610c2a565b601d81527f4c61726765207072696365206d6f76656d656e742064657465637465640000006020820152915b3880808080611503565b6105dc10156115de5750600191516115ae81610c2a565b601881527f4869676820766f6c6174696c697479206465746563746564000000000000000060208201529161158d565b91516115e981610c2a565b601881527f4e6f726d616c206d61726b657420636f6e646974696f6e73000000000000000060208201529161158d565b634e487b7160e01b81526011600452602490fd5b9061163791610dcf565b906127109182810292818404149015171561161957509061165791610def565b93611548565b634e487b7160e01b82526032600452602482fd5b509650509350505082915161168581610c2a565b6011815270496e73756666696369656e74206461746160781b602082015290565b94505090503d8082853e6116ba8185610c46565b83019060808483031261140d5783516020808601519367ffffffffffffffff9485811161176957870181601f82011215611769578051958611611755578560051b9087519661170b85840189610c46565b87528380880192820101928311611751578301905b8282106117425750505050878486015195015180830b036114105791386114e5565b81518152908301908301611720565b8580fd5b634e487b7160e01b85526041600452602485fd5b8480fd5b8251903d90823e3d90fd5b919082018092116108cc57565b9190600381106118fd57600081815b8183106118db576117a59250610def565b6000805b8381106118665750612710908181029181830414901517156108cc576117db826117d66117e19486610ddc565b610ddc565b90610def565b926117eb81611469565b5160001992838101919082116108cc57611805828461148c565b516069810290808204606914901517156108cc5760649004101561182b57505050600190565b61183f9061183883611469565b519261148c565b51605f810290808204605f14901517156108cc576064900411156118605790565b50600090565b906118ac6118b29184611879858a61148c565b5111156118b757662386f26fc100006118a561189f87611899888d61148c565b51610dcf565b80610ddc565b0490611778565b9161145a565b6117a9565b662386f26fc100006118a56118d66118cf878c61148c565b5188610dcf565b61189f565b6118f591506118ac906118ee848861148c565b5190611778565b908290611794565b5060009150819056fea2646970667358221220e054427c2e3ca4f9a86e4234cca360b4f6a5aa25dd0f9b4848e24bfcdb9ec10964736f6c6343000814003317b3ebea3094a9c48145f6945eae1e3fcf716c05bf4de1e7552ed8b3680bf0ac",
  "linkReferences": {},
  "deployedLinkReferences": {}
}