{
  "_format": "hh-sol-artifact-1",
  "contractName": "MaliciousOracle",
  "sourceName": "contracts/test/MaliciousOracle.sol",
  "abi": [
    {
      "anonymous": false,
      "inputs": [
        {
          "indexed": false,
          "internalType": "string",
          "name": "activityType",
          "type": "string"
        },
        {
          "indexed": false,
          "internalType": "address",
          "name": "token",
          "type": "address"
        },
        {
          "indexed": false,
          "internalType": "uint256",
          "name": "value",
          "type": "uint256"
        }
      ],
      "name": "MaliciousActivity",
      "type": "event"
    },
    {
      "inputs": [
        {
          "internalType": "bool",
          "name": "enable",
          "type": "bool"
        }
      ],
      "name": "enableInfiniteLoop",
      "outputs": [],
      "stateMutability": "nonpayable",
      "type": "function"
    },
    {
      "inputs": [
        {
          "internalType": "address",
          "name": "token",
          "type": "address"
        },
        {
          "internalType": "uint256",
          "name": "normalPrice",
          "type": "uint256"
        },
        {
          "internalType": "uint256",
          "name": "manipulatedPrice",
          "type": "uint256"
        }
      ],
      "name": "flashLoanManipulation",
      "outputs": [],
      "stateMutability": "nonpayable",
      "type": "function"
    },
    {
      "inputs": [],
      "name": "gasConsumption",
      "outputs": [
        {
          "internalType": "uint256",
          "name": "",
          "type": "uint256"
        }
      ],
      "stateMutability": "view",
      "type": "function"
    },
    {
      "inputs": [
        {
          "internalType": "address",
          "name": "token",
          "type": "address"
        }
      ],
      "name": "getPrice",
      "outputs": [
        {
          "internalType": "uint256",
          "name": "",
          "type": "uint256"
        }
      ],
      "stateMutability": "view",
      "type": "function"
    },
    {
      "inputs": [
        {
          "internalType": "address",
          "name": "token",
          "type": "address"
        }
      ],
      "name": "getPriceWithTimestamp",
      "outputs": [
        {
          "internalType": "uint256",
          "name": "price",
          "type": "uint256"
        },
        {
          "internalType": "uint256",
          "name": "timestamp",
          "type": "uint256"
        }
      ],
      "stateMutability": "view",
      "type": "function"
    },
    {
      "inputs": [],
      "name": "globalRevert",
      "outputs": [
        {
          "internalType": "bool",
          "name": "",
          "type": "bool"
        }
      ],
      "stateMutability": "view",
      "type": "function"
    },
    {
      "inputs": [
        {
          "internalType": "address",
          "name": "token",
          "type": "address"
        },
        {
          "internalType": "uint256",
          "name": "startPrice",
          "type": "uint256"
        },
        {
          "internalType": "uint256",
          "name": "endPrice",
          "type": "uint256"
        },
        {
          "internalType": "uint256",
          "name": "steps",
          "type": "uint256"
        }
      ],
      "name": "gradualManipulation",
      "outputs": [],
      "stateMutability": "nonpayable",
      "type": "function"
    },
    {
      "inputs": [],
      "name": "infiniteLoop",
      "outputs": [
        {
          "internalType": "bool",
          "name": "",
          "type": "bool"
        }
      ],
      "stateMutability": "view",
      "type": "function"
    },
    {
      "inputs": [
        {
          "internalType": "address",
          "name": "token",
          "type": "address"
        }
      ],
      "name": "isMalicious",
      "outputs": [
        {
          "internalType": "bool",
          "name": "",
          "type": "bool"
        }
      ],
      "stateMutability": "view",
      "type": "function"
    },
    {
      "inputs": [
        {
          "internalType": "address",
          "name": "",
          "type": "address"
        }
      ],
      "name": "manipulatedPrices",
      "outputs": [
        {
          "internalType": "uint256",
          "name": "",
          "type": "uint256"
        }
      ],
      "stateMutability": "view",
      "type": "function"
    },
    {
      "inputs": [],
      "name": "reset",
      "outputs": [],
      "stateMutability": "nonpayable",
      "type": "function"
    },
    {
      "inputs": [
        {
          "internalType": "uint256",
          "name": "_gasAmount",
          "type": "uint256"
        }
      ],
      "name": "setGasConsumption",
      "outputs": [],
      "stateMutability": "nonpayable",
      "type": "function"
    },
    {
      "inputs": [
        {
          "internalType": "bool",
          "name": "_shouldRevert",
          "type": "bool"
        }
      ],
      "name": "setGlobalRevert",
      "outputs": [],
      "stateMutability": "nonpayable",
      "type": "function"
    },
    {
      "inputs": [
        {
          "internalType": "address",
          "name": "token",
          "type": "address"
        },
        {
          "internalType": "uint256",
          "name": "price",
          "type": "uint256"
        }
      ],
      "name": "setMaliciousPrice",
      "outputs": [],
      "stateMutability": "nonpayable",
      "type": "function"
    },
    {
      "inputs": [
        {
          "internalType": "address",
          "name": "token",
          "type": "address"
        },
        {
          "internalType": "bool",
          "name": "_shouldRevert",
          "type": "bool"
        }
      ],
      "name": "setShouldRevert",
      "outputs": [],
      "stateMutability": "nonpayable",
      "type": "function"
    },
    {
      "inputs": [
        {
          "internalType": "address",
          "name": "token",
          "type": "address"
        },
        {
          "internalType": "bool",
          "name": "_isStale",
          "type": "bool"
        }
      ],
      "name": "setStalePrice",
      "outputs": [],
      "stateMutability": "nonpayable",
      "type": "function"
    },
    {
      "inputs": [
        {
          "internalType": "address",
          "name": "",
          "type": "address"
        }
      ],
      "name": "shouldReturnStale",
      "outputs": [
        {
          "internalType": "bool",
          "name": "",
          "type": "bool"
        }
      ],
      "stateMutability": "view",
      "type": "function"
    },
    {
      "inputs": [
        {
          "internalType": "address",
          "name": "",
          "type": "address"
        }
      ],
      "name": "shouldRevert",
      "outputs": [
        {
          "internalType": "bool",
          "name": "",
          "type": "bool"
        }
      ],
      "stateMutability": "view",
      "type": "function"
    },
    {
      "inputs": [
        {
          "internalType": "address",
          "name": "",
          "type": "address"
        }
      ],
      "name": "staleTimestamp",
      "outputs": [
        {
          "internalType": "uint256",
          "name": "",
          "type": "uint256"
        }
      ],
      "stateMutability": "view",
      "type": "function"
    }
  ],
  "bytecode": "0x6080806040523461001657610c5e908161001c8239f35b600080fdfe60806040908082526004908136101561001757600080fd5b600090813560e01c908162eb8fa5146109ac575080630135ed971461096e57806307e14a06146108f55780631dbf353d146108ce5780632d6ff6191461089757806341976e091461086a5780635deaa4321461082c5780636351ffef146107cd57806369430584146107ae5780636cef72d6146107225780636ef537f014610665578063794926361461057b5780639c02514a146104b4578063bafc22781461034c578063c92cf94c146102aa578063ca1a148514610272578063d7f963981461024e578063d826f88f146101ed5763eeb9ef62146100f557600080fd5b346101ea57602090816003193601126101ea57610110610a57565b84516341976e0960e01b81526001600160a01b03909116848201819052908381602481305afa9485156101e05790839291879496610178575b50508152600283528181205460ff161561016f57600383522054905b8351928352820152f35b50504290610165565b91955091925083903d85116101d8575b601f8201601f191683019067ffffffffffffffff8211848310176101c55750849183918852810103126101c15790849151933880610149565b5080fd5b634e487b7160e01b855260419052602484fd5b3d9150610188565b86513d85823e3d90fd5b80fd5b5091903461024a578260031936011261024a57600080516020610c098339815191529160a09161ffff1981541690558360055583815191606083526005606084015264149154d15560da1b6080840152816020840152820152a180f35b8280fd5b508290346101ea57806003193601126101ea575060ff602092541690519015158152f35b5082346101c15760203660031901126101c15760209181906001600160a01b0361029a610a57565b1681526003845220549051908152f35b5082346101c157806003193601126101c15760a0600080516020610c09833981519152916102d6610a57565b906102df610a48565b91600180851b0316918286526001602052610308818388209060ff801983541691151516179055565b156103445760ff60015b82519360608552600d60608601526c5245564552545f41545441434b60981b608086015260208501521690820152a180f35b60ff85610312565b5082346101c15760803660031901126101c15760a09061036a610a57565b9060243560643560443582811190828483156104a15761038d9061039293610a6d565b610bd5565b905b84519560608752601a60608801527f4752414455414c5f4d414e4950554c4154494f4e5f53544152540000000000006080880152600180891b0316958660208201528486820152600080516020610c09833981519152978891a11561047757906103fd91610bf5565b8101809111610464578495508260a094955285602052818620555b81855284602052808520549080519260608452601860608501527f4752414455414c5f4d414e4950554c4154494f4e5f454e44000000000000000060808501526020840152820152a180f35b634e487b7160e01b855260118652602485fd5b60a095969750610491929161048b91610bf5565b90610a6d565b8286528560205281862055610418565b6104ae9261038d91610a6d565b90610394565b50913461024a57602036600319011261024a576020926104d2610a57565b92549060ff821693841561055d575b841561053f575b8415610522575b50508215610514575b508115610508575b519015158152f35b60055415159150610500565b60081c60ff169150386104f8565b6001600160a01b03168152808552829020541515925038806104ef565b6001600160a01b0381168252600286528382205460ff1694506104e8565b6001600160a01b0381168252600186528382205460ff1694506104e1565b5082346101c157806003193601126101c157610595610a57565b9061059e610a48565b6001600160a01b03929092168084526002602052818420805460ff191660ff8515151617905591801561063f57611c1f194201428111610464578495509083929160a094600080516020610c0983398151915296526003602052828720555b156106375760ff60015b82519360608552600b60608601526a5354414c455f505249434560a81b608086015260208501521690820152a180f35b60ff85610607565b600080516020610c098339815191529394509060a09291600360205242828720556105fd565b5082346101c15760603660031901126101c15760a08091610684610a57565b906024359060443592600180861b03169283875286602052808288205581519060608252601060608301526f11931054d217d313d05397d4d510549560821b608083015284602083015282820152600080516020610c09833981519152958691a182865285602052818187205580519260608452600e60608501526d11931054d217d313d05397d1539160921b60808501526020840152820152a180f35b5091903461024a57602036600319011261024a57600080516020610c098339815191529160a091610751610a34565b90805461ff0083151560081b169061ff0019161790556000146107a7576001905b60ff81519260608452600d60608501526c0494e46494e4954455f4c4f4f5609c1b60808501528660208501521690820152a180f35b8390610772565b5082346101c157816003193601126101c1576020906005549051908152f35b5091903461024a57602036600319011261024a57600080516020610c098339815191529160a091358060055581519160608352600f60608401526e23a0a9afa1a7a729aaa6a82a24a7a760891b6080840152856020840152820152a180f35b5082346101c15760203660031901126101c15760209160ff9082906001600160a01b03610857610a57565b1681526001855220541690519015158152f35b5082346101c15760203660031901126101c15760209061089061088b610a57565b610a90565b9051908152f35b5082346101c15760203660031901126101c15760209181906001600160a01b036108bf610a57565b16815280845220549051908152f35b508290346101ea57806003193601126101ea575060ff6020925460081c1690519015158152f35b5082346101c157806003193601126101c15760a0600080516020610c0983398151915291610921610a57565b60243590600180851b031691828652856020528181872055805192606084526012606085015271282924a1a2afa6a0a724a82aa620aa24a7a760711b60808501526020840152820152a180f35b5082346101c15760203660031901126101c15760209160ff9082906001600160a01b03610999610a57565b1681526002855220541690519015158152f35b8484849234610a30576020366003190112610a3057600080516020610c098339815191529260a0926109dc610a34565b9060ff1981541660ff83151516179055600014610a285760ff60015b60608452600d60608501526c11d313d0905317d49155915495609a1b60808501528660208501521690820152a180f35b60ff856109f8565b8380fd5b600435908115158203610a4357565b600080fd5b602435908115158203610a4357565b600435906001600160a01b0382168203610a4357565b91908203918211610a7a57565b634e487b7160e01b600052601160045260246000fd5b6004549060ff8216610b855760018060a01b031690816000526001908160205260ff60406000205416610b365760081c60ff16610b30576005549081610af6575b5050600052600060205260406000205480610af35750670de0b6b3a764000090565b90565b805a915b610b05575b50610ad1565b82610b105a84610a6d565b1080610b27575b15610b225780610afa565b610aff565b50825a11610b17565b5b610b31565b60405162461bcd60e51b815260206004820152602160248201527f4f7261636c65206d616e6970756c6174696f6e3a20746f6b656e2072657665726044820152601d60fa1b6064820152608490fd5b60405162461bcd60e51b815260206004820152602260248201527f4f7261636c65206d616e6970756c6174696f6e3a20676c6f62616c20726576656044820152611c9d60f21b6064820152608490fd5b8115610bdf570490565b634e487b7160e01b600052601260045260246000fd5b81810292918115918404141715610a7a5756feaf949aa71db88cc65be39325f2e4bf2fe0bd08156ba21669d8c32b45a2ea2a7ca26469706673582212201bdecba5b624d636d31846efa148854d3effb70add352d97c87d527ab9cde0e464736f6c63430008140033",
  "linkReferences": {},
  "deployedLinkReferences": {}
}