{
  "_format": "hh-sol-artifact-1",
  "contractName": "MockPriceOracle",
  "sourceName": "contracts/test/MockPriceOracle.sol",
  "abi": [
    {
      "inputs": [],
      "stateMutability": "nonpayable",
      "type": "constructor"
    },
    {
      "inputs": [
        {
          "internalType": "address",
          "name": "owner",
          "type": "address"
        }
      ],
      "name": "OwnableInvalidOwner",
      "type": "error"
    },
    {
      "inputs": [
        {
          "internalType": "address",
          "name": "account",
          "type": "address"
        }
      ],
      "name": "OwnableUnauthorizedAccount",
      "type": "error"
    },
    {
      "anonymous": false,
      "inputs": [
        {
          "indexed": true,
          "internalType": "address",
          "name": "previousOwner",
          "type": "address"
        },
        {
          "indexed": true,
          "internalType": "address",
          "name": "newOwner",
          "type": "address"
        }
      ],
      "name": "OwnershipTransferred",
      "type": "event"
    },
    {
      "inputs": [
        {
          "internalType": "address",
          "name": "token",
          "type": "address"
        }
      ],
      "name": "getPrice",
      "outputs": [
        {
          "internalType": "uint256",
          "name": "",
          "type": "uint256"
        }
      ],
      "stateMutability": "view",
      "type": "function"
    },
    {
      "inputs": [
        {
          "internalType": "address",
          "name": "token",
          "type": "address"
        },
        {
          "internalType": "uint256",
          "name": "startTime",
          "type": "uint256"
        },
        {
          "internalType": "uint256",
          "name": "endTime",
          "type": "uint256"
        }
      ],
      "name": "getPriceHistory",
      "outputs": [
        {
          "internalType": "uint256[]",
          "name": "prices",
          "type": "uint256[]"
        },
        {
          "internalType": "uint256[]",
          "name": "timestamps",
          "type": "uint256[]"
        }
      ],
      "stateMutability": "view",
      "type": "function"
    },
    {
      "inputs": [],
      "name": "owner",
      "outputs": [
        {
          "internalType": "address",
          "name": "",
          "type": "address"
        }
      ],
      "stateMutability": "view",
      "type": "function"
    },
    {
      "inputs": [],
      "name": "renounceOwnership",
      "outputs": [],
      "stateMutability": "nonpayable",
      "type": "function"
    },
    {
      "inputs": [
        {
          "internalType": "address",
          "name": "token",
          "type": "address"
        },
        {
          "internalType": "uint256",
          "name": "price",
          "type": "uint256"
        }
      ],
      "name": "setPrice",
      "outputs": [],
      "stateMutability": "nonpayable",
      "type": "function"
    },
    {
      "inputs": [
        {
          "internalType": "address",
          "name": "newOwner",
          "type": "address"
        }
      ],
      "name": "transferOwnership",
      "outputs": [],
      "stateMutability": "nonpayable",
      "type": "function"
    }
  ],
  "bytecode": "0x608060405234801561001057600080fd5b50338061003757604051631e4fbdf760e01b81526000600482015260240160405180910390fd5b61004081610046565b50610096565b600080546001600160a01b038381166001600160a01b0319831681178455604051919092169283917f8be0079c531659141344cd1fd0a4f28419497f9722a3daafe3b4186f6b6457e09190a35050565b610621806100a56000396000f3fe608060405234801561001057600080fd5b50600436106100615760003560e01c8062e4768b1461006657806341976e091461007b578063715018a6146100b75780638da5cb5b146100bf578063f2fde38b146100da578063fef511ed146100ed575b600080fd5b6100796100743660046104b0565b61010e565b005b6100a46100893660046104da565b6001600160a01b031660009081526002602052604090205490565b6040519081526020015b60405180910390f35b61007961016f565b6000546040516001600160a01b0390911681526020016100ae565b6100796100e83660046104da565b610183565b6101006100fb3660046104fc565b6101c6565b6040516100ae92919061056a565b610116610417565b6001600160a01b0390911660009081526002602081815260408084208590556001808352818520825180840190935295825242828401908152865480830188559686529290942090519490920290910192835551910155565b610177610417565b6101816000610444565b565b61018b610417565b6001600160a01b0381166101ba57604051631e4fbdf760e01b8152600060048201526024015b60405180910390fd5b6101c381610444565b50565b6001600160a01b0383166000908152600160205260408120606091829190805b825481101561026a578683828154811061020257610202610598565b9060005260206000209060020201600101541015801561024557508583828154811061023057610230610598565b90600052602060002090600202016001015411155b156102585781610254816105ae565b9250505b80610262816105ae565b9150506101e6565b508067ffffffffffffffff811115610284576102846105d5565b6040519080825280602002602001820160405280156102ad578160200160208202803683370190505b5093508067ffffffffffffffff8111156102c9576102c96105d5565b6040519080825280602002602001820160405280156102f2578160200160208202803683370190505b5092506000805b83548110801561030857508282105b1561040b578784828154811061032057610320610598565b9060005260206000209060020201600101541015801561036357508684828154811061034e5761034e610598565b90600052602060002090600202016001015411155b156103f95783818154811061037a5761037a610598565b90600052602060002090600202016000015486838151811061039e5761039e610598565b6020026020010181815250508381815481106103bc576103bc610598565b9060005260206000209060020201600101548583815181106103e0576103e0610598565b6020908102919091010152816103f5816105ae565b9250505b80610403816105ae565b9150506102f9565b50505050935093915050565b6000546001600160a01b031633146101815760405163118cdaa760e01b81523360048201526024016101b1565b600080546001600160a01b038381166001600160a01b0319831681178455604051919092169283917f8be0079c531659141344cd1fd0a4f28419497f9722a3daafe3b4186f6b6457e09190a35050565b80356001600160a01b03811681146104ab57600080fd5b919050565b600080604083850312156104c357600080fd5b6104cc83610494565b946020939093013593505050565b6000602082840312156104ec57600080fd5b6104f582610494565b9392505050565b60008060006060848603121561051157600080fd5b61051a84610494565b95602085013595506040909401359392505050565b600081518084526020808501945080840160005b8381101561055f57815187529582019590820190600101610543565b509495945050505050565b60408152600061057d604083018561052f565b828103602084015261058f818561052f565b95945050505050565b634e487b7160e01b600052603260045260246000fd5b6000600182016105ce57634e487b7160e01b600052601160045260246000fd5b5060010190565b634e487b7160e01b600052604160045260246000fdfea264697066735822122059710e598b3d55a6fa49e9254b0b3e811b0f35827ee698d2c960266f5be4147d64736f6c63430008140033",
  "linkReferences": {},
  "deployedLinkReferences": {}
}