{
  "_format": "hh-sol-artifact-1",
  "contractName": "MockMultiOracle",
  "sourceName": "contracts/test/MockMultiOracle.sol",
  "abi": [
    {
      "inputs": [],
      "stateMutability": "nonpayable",
      "type": "constructor"
    },
    {
      "inputs": [
        {
          "internalType": "address",
          "name": "owner",
          "type": "address"
        }
      ],
      "name": "OwnableInvalidOwner",
      "type": "error"
    },
    {
      "inputs": [
        {
          "internalType": "address",
          "name": "account",
          "type": "address"
        }
      ],
      "name": "OwnableUnauthorizedAccount",
      "type": "error"
    },
    {
      "anonymous": false,
      "inputs": [
        {
          "indexed": true,
          "internalType": "address",
          "name": "token",
          "type": "address"
        },
        {
          "indexed": false,
          "internalType": "uint256",
          "name": "consensusPrice",
          "type": "uint256"
        }
      ],
      "name": "ConsensusReached",
      "type": "event"
    },
    {
      "anonymous": false,
      "inputs": [
        {
          "indexed": true,
          "internalType": "address",
          "name": "token",
          "type": "address"
        },
        {
          "indexed": true,
          "internalType": "address",
          "name": "oracle",
          "type": "address"
        },
        {
          "indexed": false,
          "internalType": "uint256",
          "name": "deviation",
          "type": "uint256"
        }
      ],
      "name": "DeviationAlert",
      "type": "event"
    },
    {
      "anonymous": false,
      "inputs": [
        {
          "indexed": true,
          "internalType": "address",
          "name": "oracle",
          "type": "address"
        },
        {
          "indexed": false,
          "internalType": "bool",
          "name": "authorized",
          "type": "bool"
        }
      ],
      "name": "OracleAuthorized",
      "type": "event"
    },
    {
      "anonymous": false,
      "inputs": [
        {
          "indexed": true,
          "internalType": "address",
          "name": "previousOwner",
          "type": "address"
        },
        {
          "indexed": true,
          "internalType": "address",
          "name": "newOwner",
          "type": "address"
        }
      ],
      "name": "OwnershipTransferred",
      "type": "event"
    },
    {
      "anonymous": false,
      "inputs": [
        {
          "indexed": true,
          "internalType": "address",
          "name": "token",
          "type": "address"
        },
        {
          "indexed": true,
          "internalType": "address",
          "name": "oracle",
          "type": "address"
        },
        {
          "indexed": false,
          "internalType": "uint256",
          "name": "price",
          "type": "uint256"
        }
      ],
      "name": "PriceUpdated",
      "type": "event"
    },
    {
      "inputs": [],
      "name": "MAX_DEVIATION",
      "outputs": [
        {
          "internalType": "uint256",
          "name": "",
          "type": "uint256"
        }
      ],
      "stateMutability": "view",
      "type": "function"
    },
    {
      "inputs": [],
      "name": "STALENESS_THRESHOLD",
      "outputs": [
        {
          "internalType": "uint256",
          "name": "",
          "type": "uint256"
        }
      ],
      "stateMutability": "view",
      "type": "function"
    },
    {
      "inputs": [
        {
          "internalType": "address",
          "name": "oracle",
          "type": "address"
        },
        {
          "internalType": "bool",
          "name": "authorized",
          "type": "bool"
        }
      ],
      "name": "authorizeOracle",
      "outputs": [],
      "stateMutability": "nonpayable",
      "type": "function"
    },
    {
      "inputs": [
        {
          "internalType": "address",
          "name": "",
          "type": "address"
        }
      ],
      "name": "authorizedOracles",
      "outputs": [
        {
          "internalType": "bool",
          "name": "",
          "type": "bool"
        }
      ],
      "stateMutability": "view",
      "type": "function"
    },
    {
      "inputs": [
        {
          "internalType": "address",
          "name": "token",
          "type": "address"
        }
      ],
      "name": "getConsensusPrice",
      "outputs": [
        {
          "internalType": "uint256",
          "name": "",
          "type": "uint256"
        },
        {
          "internalType": "bool",
          "name": "",
          "type": "bool"
        }
      ],
      "stateMutability": "view",
      "type": "function"
    },
    {
      "inputs": [
        {
          "internalType": "address",
          "name": "token",
          "type": "address"
        },
        {
          "internalType": "address",
          "name": "oracle",
          "type": "address"
        }
      ],
      "name": "getOracleData",
      "outputs": [
        {
          "components": [
            {
              "internalType": "uint256",
              "name": "price",
              "type": "uint256"
            },
            {
              "internalType": "uint256",
              "name": "timestamp",
              "type": "uint256"
            },
            {
              "internalType": "bool",
              "name": "isValid",
              "type": "bool"
            },
            {
              "internalType": "address",
              "name": "oracle",
              "type": "address"
            }
          ],
          "internalType": "struct MockMultiOracle.PriceData",
          "name": "",
          "type": "tuple"
        }
      ],
      "stateMutability": "view",
      "type": "function"
    },
    {
      "inputs": [
        {
          "internalType": "address",
          "name": "",
          "type": "address"
        },
        {
          "internalType": "address",
          "name": "",
          "type": "address"
        }
      ],
      "name": "oraclePrices",
      "outputs": [
        {
          "internalType": "uint256",
          "name": "price",
          "type": "uint256"
        },
        {
          "internalType": "uint256",
          "name": "timestamp",
          "type": "uint256"
        },
        {
          "internalType": "bool",
          "name": "isValid",
          "type": "bool"
        },
        {
          "internalType": "address",
          "name": "oracle",
          "type": "address"
        }
      ],
      "stateMutability": "view",
      "type": "function"
    },
    {
      "inputs": [],
      "name": "owner",
      "outputs": [
        {
          "internalType": "address",
          "name": "",
          "type": "address"
        }
      ],
      "stateMutability": "view",
      "type": "function"
    },
    {
      "inputs": [],
      "name": "renounceOwnership",
      "outputs": [],
      "stateMutability": "nonpayable",
      "type": "function"
    },
    {
      "inputs": [
        {
          "internalType": "address",
          "name": "token",
          "type": "address"
        },
        {
          "internalType": "address",
          "name": "oracle",
          "type": "address"
        },
        {
          "internalType": "uint256",
          "name": "manipulatedPrice",
          "type": "uint256"
        }
      ],
      "name": "simulateManipulation",
      "outputs": [],
      "stateMutability": "nonpayable",
      "type": "function"
    },
    {
      "inputs": [
        {
          "internalType": "address",
          "name": "token",
          "type": "address"
        },
        {
          "internalType": "address",
          "name": "oracle",
          "type": "address"
        }
      ],
      "name": "simulateStalePrice",
      "outputs": [],
      "stateMutability": "nonpayable",
      "type": "function"
    },
    {
      "inputs": [
        {
          "internalType": "address",
          "name": "",
          "type": "address"
        },
        {
          "internalType": "uint256",
          "name": "",
          "type": "uint256"
        }
      ],
      "name": "tokenOracles",
      "outputs": [
        {
          "internalType": "address",
          "name": "",
          "type": "address"
        }
      ],
      "stateMutability": "view",
      "type": "function"
    },
    {
      "inputs": [
        {
          "internalType": "address",
          "name": "newOwner",
          "type": "address"
        }
      ],
      "name": "transferOwnership",
      "outputs": [],
      "stateMutability": "nonpayable",
      "type": "function"
    },
    {
      "inputs": [
        {
          "internalType": "address",
          "name": "token",
          "type": "address"
        },
        {
          "internalType": "uint256",
          "name": "price",
          "type": "uint256"
        },
        {
          "internalType": "address",
          "name": "oracle",
          "type": "address"
        }
      ],
      "name": "updatePrice",
      "outputs": [],
      "stateMutability": "nonpayable",
      "type": "function"
    }
  ],
  "bytecode": "0x6080806040523461007a5733156100645760008054336001600160a01b03198216811783556040519290916001600160a01b0316907f8be0079c531659141344cd1fd0a4f28419497f9722a3daafe3b4186f6b6457e09080a3610de090816100808239f35b631e4fbdf760e01b815260006004820152602490fd5b600080fdfe6040608081526004908136101561001557600080fd5b600091823560e01c80630c2c69fa1461087b578063297e8a0d1461056357806337fbc845146104ab5780634c12c854146104525780634d5d9055146103d057806361c992a3146103925780637065fcc914610321578063715018a6146102c75780637215b0bf146102aa5780638da5cb5b14610282578063b05f233a14610265578063ba44cd9014610179578063c2c2a7e8146101445763f2fde38b146100bb57600080fd5b34610140576020366003190112610140576100d4610900565b906100dd61095f565b6001600160a01b0391821692831561012a57505082546001600160a01b0319811683178455167f8be0079c531659141344cd1fd0a4f28419497f9722a3daafe3b4186f6b6457e08380a380f35b51631e4fbdf760e01b8152908101849052602490fd5b8280fd5b8284346101765760203660031901126101765750610168610163610900565b610a5d565b825191825215156020820152f35b80fd5b50503461026157606036600319011261026157610194610900565b907fb71c154260e8508e211e2ace194becba2c6d7e727c3ed292fe4787458969cd1060206101c061091b565b92604435906101cd61095f565b80516101d8816109b0565b8281528381019542875261023860028484019360018552606081019360018060a01b038091169b8c865216998a8d52600189528c8c88822091528952868d20915182555160018201550192511515839060ff801983541691151516179055565b518154610100600160a81b03191660089190911b610100600160a81b031617905551908152a380f35b5080fd5b505034610261578160031936011261026157602090516101f48152f35b505034610261578160031936011261026157905490516001600160a01b039091168152602090f35b50503461026157816003193601126102615760209051610e108152f35b83346101765780600319360112610176576102e061095f565b80546001600160a01b03198116825581906001600160a01b03167f8be0079c531659141344cd1fd0a4f28419497f9722a3daafe3b4186f6b6457e08280a380f35b5050346102615780600319360112610261576080918161033f610900565b9161034861091b565b60018060a01b038094168252600160205283838320911682526020522080549260026001830154920154918151948552602085015260ff821615159084015260081c166060820152f35b5050346102615760203660031901126102615760209160ff9082906001600160a01b036103bd610900565b1681526003855220541690519015158152f35b5090346101405780600319360112610140576103ea610900565b6103f261091b565b906103fb61095f565b6001600160a01b0390811685526001602090815283862092909116855252822042610e0f1981019290831161043f5742610e10190192831161043f57506001015580f35b634e487b7160e01b845260119052602483fd5b50503461026157806003193601126102615761046c610900565b6001600160a01b039081168352600260205281832080546024359490851015610176575060209361049c91610931565b92905490519260031b1c168152f35b505034610261578060031936011261026157608091816104c9610900565b916104d261091b565b81606084516104e0816109b0565b8281528260208201528286820152015260018060a01b0380941682526001602052838383209116825260205220825192610519846109b0565b8154938481526002600184015493602083019485520154928460608484019360ff871615158552019460081c16845282519586525160208601525115159084015251166060820152f35b50346101405760603660031901126101405761057d610900565b916001600160a01b039160243590604435848116908190036108775780875260039260209380855260ff868a205416801561086b575b15610837578115610804578897871696885b888b5260028752878b2080548210156107f157826105e4838893610931565b905490861b1c16146105fe576105f99061098b565b6105c5565b5087985090859697929394959160015b1561076f575b50507fb71c154260e8508e211e2ace194becba2c6d7e727c3ed292fe4787458969cd1091928751610644816109b0565b8181528a6106966002858401934285528c810194600186528d60608301958c87528b815260018a528181208d82528a5220915182555160018201550192511515839060ff801983541691151516179055565b518154610100600160a81b03191660089190911b610100600160a81b03161790558751908152a3825163185854fd60e31b81529081018490528281602481305afa8015610765578591869161071e575b506106ef578480f35b7f97fd003064b064e92e8b202043289b1432f312fe348ea15856e87eca7c428e0a9251908152a2388080808480f35b809250848092503d831161075e575b61073781836109e2565b8101031261075a578181519101519081151582036107565790386106e6565b8580fd5b8480fd5b503d61072d565b83513d87823e3d90fd5b915091895260028652868920805490680100000000000000008210156107de579287926107c5837fb71c154260e8508e211e2ace194becba2c6d7e727c3ed292fe4787458969cd109660018e9996018155610931565b81939154911b9188831b921b1916179055929138610614565b634e487b7160e01b8b526041875260248bfd5b505090859697989189939495969261060e565b855162461bcd60e51b8152808501869052600d60248201526c496e76616c696420707269636560981b6044820152606490fd5b855162461bcd60e51b8152808501869052600e60248201526d139bdd08185d5d1a1bdc9a5e995960921b6044820152606490fd5b508689541633146105b3565b8680fd5b505034610261578060031936011261026157610895610900565b906024359182151580840361075a577f82a8fb1e779ea45ad427cc612e47087f5386a567e49dce488185e40646fa48d5926108f86020936108d461095f565b60018060a01b031695868852600385528288209060ff801983541691151516179055565b51908152a280f35b600435906001600160a01b038216820361091657565b600080fd5b602435906001600160a01b038216820361091657565b80548210156109495760005260206000200190600090565b634e487b7160e01b600052603260045260246000fd5b6000546001600160a01b0316330361097357565b60405163118cdaa760e01b8152336004820152602490fd5b600019811461099a5760010190565b634e487b7160e01b600052601160045260246000fd5b6080810190811067ffffffffffffffff8211176109cc57604052565b634e487b7160e01b600052604160045260246000fd5b90601f8019910116810190811067ffffffffffffffff8211176109cc57604052565b67ffffffffffffffff81116109cc5760051b60200190565b80518210156109495760209160051b010190565b9190820391821161099a57565b8115610a47570490565b634e487b7160e01b600052601260045260246000fd5b9060018060a01b03809216916000928084526002936020858152604090818320948251808784829954938481520190875284872092875b86828210610c8c57505050610aab925003876109e2565b85519360038510610c8057610abf85610a04565b94610acc855196876109e2565b808652610adb601f1991610a04565b0136848701378095815b8851811015610b9357818352600180865286842085610b04848d610a1c565b5116855286528684208c885192610b1a846109b0565b825484528201549182898501520154908660ff8316151592838b86015260081c16606084015281610b7c575b50610b5b575b50610b569061098b565b610ae5565b610b569198610b759151610b6f828b610a1c565b5261098b565b9790610b4c565b610e109150610b8b9042610a30565b111538610b46565b50509550505050938110610c7957610bab8185610ca4565b91600194815b838110610bc1575b505050509190565b84610bcc8284610a1c565b511115610c3f57610be785610be18385610a1c565b51610a30565b61271090818102918183041490151715610c2b57610c08866101f492610a3d565b11610c1b57610c169061098b565b610bb1565b5050919350509138808080610bb9565b634e487b7160e01b84526011600452602484fd5b610c53610c4c8284610a1c565b5186610a30565b61271090818102918183041490151715610c2b57610c74866101f492610a3d565b610c08565b5091508190565b97505050505050508190565b8554871684526001958601958c955093019201610a94565b916000905b6000199083820184811161099a57831015610d575760005b610ccb8486610a30565b83810190811161099a57811015610d4557610ce68187610a1c565b51906001810180821161099a57610d0e92610d01828a610a1c565b5110610d13575b5061098b565b610cc1565b610d3e610d20838a610a1c565b5191610d2c818b610a1c565b51610d37858c610a1c565b5289610a1c565b5238610d08565b5091610d51915061098b565b90610ca9565b939291505060018116610d985760011c60001981019080821161099a57610d81610d889284610a1c565b5192610a1c565b51810180911161099a5760011c90565b90610da69160011c90610a1c565b519056fea26469706673582212202817014a5b71175475c1059c5badde39af2a17057813b902a0f3c580c9f8f08664736f6c63430008140033",
  "linkReferences": {},
  "deployedLinkReferences": {}
}