{
  "_format": "hh-sol-artifact-1",
  "contractName": "MockPriceOracle",
  "sourceName": "contracts/test/MockPriceOracle.sol",
  "abi": [
    {
      "inputs": [],
      "stateMutability": "nonpayable",
      "type": "constructor"
    },
    {
      "inputs": [
        {
          "internalType": "address",
          "name": "owner",
          "type": "address"
        }
      ],
      "name": "OwnableInvalidOwner",
      "type": "error"
    },
    {
      "inputs": [
        {
          "internalType": "address",
          "name": "account",
          "type": "address"
        }
      ],
      "name": "OwnableUnauthorizedAccount",
      "type": "error"
    },
    {
      "anonymous": false,
      "inputs": [
        {
          "indexed": true,
          "internalType": "address",
          "name": "previousOwner",
          "type": "address"
        },
        {
          "indexed": true,
          "internalType": "address",
          "name": "newOwner",
          "type": "address"
        }
      ],
      "name": "OwnershipTransferred",
      "type": "event"
    },
    {
      "inputs": [
        {
          "internalType": "address",
          "name": "token",
          "type": "address"
        }
      ],
      "name": "getPrice",
      "outputs": [
        {
          "internalType": "uint256",
          "name": "",
          "type": "uint256"
        }
      ],
      "stateMutability": "view",
      "type": "function"
    },
    {
      "inputs": [
        {
          "internalType": "address",
          "name": "token",
          "type": "address"
        },
        {
          "internalType": "uint256",
          "name": "startTime",
          "type": "uint256"
        },
        {
          "internalType": "uint256",
          "name": "endTime",
          "type": "uint256"
        }
      ],
      "name": "getPriceHistory",
      "outputs": [
        {
          "internalType": "uint256[]",
          "name": "prices",
          "type": "uint256[]"
        },
        {
          "internalType": "uint256[]",
          "name": "timestamps",
          "type": "uint256[]"
        }
      ],
      "stateMutability": "view",
      "type": "function"
    },
    {
      "inputs": [],
      "name": "owner",
      "outputs": [
        {
          "internalType": "address",
          "name": "",
          "type": "address"
        }
      ],
      "stateMutability": "view",
      "type": "function"
    },
    {
      "inputs": [],
      "name": "renounceOwnership",
      "outputs": [],
      "stateMutability": "nonpayable",
      "type": "function"
    },
    {
      "inputs": [
        {
          "internalType": "address",
          "name": "token",
          "type": "address"
        },
        {
          "internalType": "uint256",
          "name": "price",
          "type": "uint256"
        }
      ],
      "name": "setPrice",
      "outputs": [],
      "stateMutability": "nonpayable",
      "type": "function"
    },
    {
      "inputs": [
        {
          "internalType": "address",
          "name": "newOwner",
          "type": "address"
        }
      ],
      "name": "transferOwnership",
      "outputs": [],
      "stateMutability": "nonpayable",
      "type": "function"
    }
  ],
  "bytecode": "0x6080806040523461007a5733156100645760008054336001600160a01b03198216811783556040519290916001600160a01b0316907f8be0079c531659141344cd1fd0a4f28419497f9722a3daafe3b4186f6b6457e09080a36105a790816100808239f35b631e4fbdf760e01b815260006004820152602490fd5b600080fdfe604060808152600436101561001357600080fd5b600090813560e01c8062e4768b1461033b57806341976e0914610304578063715018a6146102a75780638da5cb5b14610280578063f2fde38b146101fb5763fef511ed1461006057600080fd5b346101f75760603660031901126101f757610079610417565b6001600160a01b0316825260016020819052818320805491908490604435602435835b8681106101a157506100ad88610517565b976100b781610517565b9685875b6100eb575b8a8a6100e78b6100d98351948486958652850190610432565b908382036020850152610432565b0390f35b81811080610198575b15610193579081898c868b61010d819a9998978c610492565b50015410158061017c575b610132575b5050610128906104c4565b90919293946100bb565b986101729161016c828a610163879e978e6101289961015d866101558585610492565b50549261055d565b52610492565b5001549261055d565b526104c4565b979050898c61011d565b508688610189858c610492565b5001541115610118565b6100c0565b508287106100f4565b81866101ad8387610492565b5001541015806101e0575b6101cb575b6101c6906104c4565b61009c565b976101d86101c6916104c4565b9890506101bd565b5082866101ed8387610492565b50015411156101b8565b5080fd5b50346101f75760203660031901126101f757610215610417565b61021d610466565b6001600160a01b03908116918215610269575082546001600160a01b0319811683178455167f8be0079c531659141344cd1fd0a4f28419497f9722a3daafe3b4186f6b6457e08380a380f35b51631e4fbdf760e01b815260048101849052602490fd5b50346101f757816003193601126101f757905490516001600160a01b039091168152602090f35b82346103015780600319360112610301576102c0610466565b80546001600160a01b03198116825581906001600160a01b03167f8be0079c531659141344cd1fd0a4f28419497f9722a3daafe3b4186f6b6457e08280a380f35b80fd5b50346101f75760203660031901126101f75760209181906001600160a01b0361032b610417565b1681526002845220549051908152f35b50346101f757806003193601126101f757610354610417565b60243590610360610466565b60018060a01b03168352600260205280828420556001602052818320908251928084019084821067ffffffffffffffff831117610403575282526020820190428252805490680100000000000000008210156103ef57906103c691600182018155610492565b9290926103db57906001915183555191015580f35b634e487b7160e01b84526004849052602484fd5b634e487b7160e01b85526041600452602485fd5b634e487b7160e01b86526041600452602486fd5b600435906001600160a01b038216820361042d57565b600080fd5b90815180825260208080930193019160005b828110610452575050505090565b835185529381019392810192600101610444565b6000546001600160a01b0316330361047a57565b60405163118cdaa760e01b8152336004820152602490fd5b80548210156104ae5760005260206000209060011b0190600090565b634e487b7160e01b600052603260045260246000fd5b60001981146104d35760010190565b634e487b7160e01b600052601160045260246000fd5b67ffffffffffffffff81116105015760051b60200190565b634e487b7160e01b600052604160045260246000fd5b90610521826104e9565b60405190601f1990601f018116820167ffffffffffffffff8111838210176105015760405283825261055382946104e9565b0190602036910137565b80518210156104ae5760209160051b01019056fea2646970667358221220a68c404eaff0eb0d760f75cd3ab8eda449b1b321d3dacd2105d1be378889992664736f6c63430008140033",
  "linkReferences": {},
  "deployedLinkReferences": {}
}