{
  "_format": "hh-sol-artifact-1",
  "contractName": "SolvencyProof",
  "sourceName": "contracts/SolvencyProof/SolvencyProof.sol",
  "abi": [
    {
      "inputs": [],
      "stateMutability": "nonpayable",
      "type": "constructor"
    },
    {
      "inputs": [
        {
          "internalType": "address",
          "name": "owner",
          "type": "address"
        }
      ],
      "name": "OwnableInvalidOwner",
      "type": "error"
    },
    {
      "inputs": [
        {
          "internalType": "address",
          "name": "account",
          "type": "address"
        }
      ],
      "name": "OwnableUnauthorizedAccount",
      "type": "error"
    },
    {
      "inputs": [],
      "name": "ReentrancyGuardReentrantCall",
      "type": "error"
    },
    {
      "anonymous": false,
      "inputs": [
        {
          "indexed": true,
          "internalType": "address",
          "name": "oracle",
          "type": "address"
        },
        {
          "indexed": false,
          "internalType": "bool",
          "name": "authorized",
          "type": "bool"
        }
      ],
      "name": "OracleUpdated",
      "type": "event"
    },
    {
      "anonymous": false,
      "inputs": [
        {
          "indexed": true,
          "internalType": "address",
          "name": "previousOwner",
          "type": "address"
        },
        {
          "indexed": true,
          "internalType": "address",
          "name": "newOwner",
          "type": "address"
        }
      ],
      "name": "OwnershipTransferred",
      "type": "event"
    },
    {
      "anonymous": false,
      "inputs": [
        {
          "indexed": false,
          "internalType": "string",
          "name": "riskLevel",
          "type": "string"
        },
        {
          "indexed": false,
          "internalType": "uint256",
          "name": "currentValue",
          "type": "uint256"
        },
        {
          "indexed": false,
          "internalType": "uint256",
          "name": "threshold",
          "type": "uint256"
        },
        {
          "indexed": false,
          "internalType": "uint256",
          "name": "timestamp",
          "type": "uint256"
        }
      ],
      "name": "RiskAlert",
      "type": "event"
    },
    {
      "anonymous": false,
      "inputs": [
        {
          "indexed": false,
          "internalType": "uint256",
          "name": "totalAssets",
          "type": "uint256"
        },
        {
          "indexed": false,
          "internalType": "uint256",
          "name": "totalLiabilities",
          "type": "uint256"
        },
        {
          "indexed": false,
          "internalType": "uint256",
          "name": "healthFactor",
          "type": "uint256"
        },
        {
          "indexed": false,
          "internalType": "uint256",
          "name": "timestamp",
          "type": "uint256"
        }
      ],
      "name": "SolvencyMetricsUpdated",
      "type": "event"
    },
    {
      "inputs": [
        {
          "internalType": "address",
          "name": "",
          "type": "address"
        }
      ],
      "name": "assetOracles",
      "outputs": [
        {
          "internalType": "bool",
          "name": "",
          "type": "bool"
        }
      ],
      "stateMutability": "view",
      "type": "function"
    },
    {
      "inputs": [],
      "name": "getProtocolAssets",
      "outputs": [
        {
          "components": [
            {
              "internalType": "address[]",
              "name": "tokens",
              "type": "address[]"
            },
            {
              "internalType": "uint256[]",
              "name": "amounts",
              "type": "uint256[]"
            },
            {
              "internalType": "uint256[]",
              "name": "values",
              "type": "uint256[]"
            },
            {
              "internalType": "uint256",
              "name": "timestamp",
              "type": "uint256"
            }
          ],
          "internalType": "struct ISolvencyProof.ProtocolAssets",
          "name": "",
          "type": "tuple"
        }
      ],
      "stateMutability": "view",
      "type": "function"
    },
    {
      "inputs": [],
      "name": "getProtocolLiabilities",
      "outputs": [
        {
          "components": [
            {
              "internalType": "address[]",
              "name": "tokens",
              "type": "address[]"
            },
            {
              "internalType": "uint256[]",
              "name": "amounts",
              "type": "uint256[]"
            },
            {
              "internalType": "uint256[]",
              "name": "values",
              "type": "uint256[]"
            },
            {
              "internalType": "uint256",
              "name": "timestamp",
              "type": "uint256"
            }
          ],
          "internalType": "struct ISolvencyProof.ProtocolLiabilities",
          "name": "",
          "type": "tuple"
        }
      ],
      "stateMutability": "view",
      "type": "function"
    },
    {
      "inputs": [
        {
          "internalType": "uint256",
          "name": "startTime",
          "type": "uint256"
        },
        {
          "internalType": "uint256",
          "name": "endTime",
          "type": "uint256"
        }
      ],
      "name": "getSolvencyHistory",
      "outputs": [
        {
          "internalType": "uint256[]",
          "name": "timestamps",
          "type": "uint256[]"
        },
        {
          "internalType": "uint256[]",
          "name": "ratios",
          "type": "uint256[]"
        },
        {
          "components": [
            {
              "internalType": "address[]",
              "name": "tokens",
              "type": "address[]"
            },
            {
              "internalType": "uint256[]",
              "name": "amounts",
              "type": "uint256[]"
            },
            {
              "internalType": "uint256[]",
              "name": "values",
              "type": "uint256[]"
            },
            {
              "internalType": "uint256",
              "name": "timestamp",
              "type": "uint256"
            }
          ],
          "internalType": "struct ISolvencyProof.ProtocolAssets[]",
          "name": "assets",
          "type": "tuple[]"
        },
        {
          "components": [
            {
              "internalType": "address[]",
              "name": "tokens",
              "type": "address[]"
            },
            {
              "internalType": "uint256[]",
              "name": "amounts",
              "type": "uint256[]"
            },
            {
              "internalType": "uint256[]",
              "name": "values",
              "type": "uint256[]"
            },
            {
              "internalType": "uint256",
              "name": "timestamp",
              "type": "uint256"
            }
          ],
          "internalType": "struct ISolvencyProof.ProtocolLiabilities[]",
          "name": "liabilities",
          "type": "tuple[]"
        }
      ],
      "stateMutability": "view",
      "type": "function"
    },
    {
      "inputs": [],
      "name": "getSolvencyRatio",
      "outputs": [
        {
          "internalType": "uint256",
          "name": "",
          "type": "uint256"
        }
      ],
      "stateMutability": "view",
      "type": "function"
    },
    {
      "inputs": [],
      "name": "owner",
      "outputs": [
        {
          "internalType": "address",
          "name": "",
          "type": "address"
        }
      ],
      "stateMutability": "view",
      "type": "function"
    },
    {
      "inputs": [],
      "name": "renounceOwnership",
      "outputs": [],
      "stateMutability": "nonpayable",
      "type": "function"
    },
    {
      "inputs": [
        {
          "internalType": "address",
          "name": "oracle",
          "type": "address"
        },
        {
          "internalType": "bool",
          "name": "authorized",
          "type": "bool"
        }
      ],
      "name": "setOracle",
      "outputs": [],
      "stateMutability": "nonpayable",
      "type": "function"
    },
    {
      "inputs": [
        {
          "internalType": "address",
          "name": "newOwner",
          "type": "address"
        }
      ],
      "name": "transferOwnership",
      "outputs": [],
      "stateMutability": "nonpayable",
      "type": "function"
    },
    {
      "inputs": [
        {
          "internalType": "address[]",
          "name": "tokens",
          "type": "address[]"
        },
        {
          "internalType": "uint256[]",
          "name": "amounts",
          "type": "uint256[]"
        },
        {
          "internalType": "uint256[]",
          "name": "values",
          "type": "uint256[]"
        }
      ],
      "name": "updateAssets",
      "outputs": [],
      "stateMutability": "nonpayable",
      "type": "function"
    },
    {
      "inputs": [
        {
          "internalType": "address[]",
          "name": "tokens",
          "type": "address[]"
        },
        {
          "internalType": "uint256[]",
          "name": "amounts",
          "type": "uint256[]"
        },
        {
          "internalType": "uint256[]",
          "name": "values",
          "type": "uint256[]"
        }
      ],
      "name": "updateLiabilities",
      "outputs": [],
      "stateMutability": "nonpayable",
      "type": "function"
    },
    {
      "inputs": [],
      "name": "verifySolvency",
      "outputs": [
        {
          "internalType": "bool",
          "name": "isSolvent",
          "type": "bool"
        },
        {
          "internalType": "uint256",
          "name": "healthFactor",
          "type": "uint256"
        }
      ],
      "stateMutability": "view",
      "type": "function"
    }
  ],
  "bytecode": "0x608060405234801561001057600080fd5b50338061003757604051631e4fbdf760e01b81526000600482015260240160405180910390fd5b6100408161004a565b506001805561009a565b600080546001600160a01b038381166001600160a01b0319831681178455604051919092169283917f8be0079c531659141344cd1fd0a4f28419497f9722a3daafe3b4186f6b6457e09190a35050565b611b36806100a96000396000f3fe608060405234801561001057600080fd5b50600436106100b45760003560e01c80638da5cb5b116100715780638da5cb5b14610159578063c7a85d1e14610174578063e117a76514610187578063f2fde38b1461018f578063f8a66851146101a2578063fefa625f146101c557600080fd5b8063148c74c9146100b957806319e7476b146100d75780632b663986146100ec578063653608431461011f578063715018a6146101325780638b88b7e21461013a575b600080fd5b6100c16101db565b6040516100ce91906117cf565b60405180910390f35b6100ea6100e5366004611835565b61032d565b005b61010f6100fa3660046118eb565b600a6020526000908152604090205460ff1681565b60405190151581526020016100ce565b6100ea61012d366004611906565b61050d565b6100ea6105c3565b6101426105d7565b6040805192151583526020830191909152016100ce565b6000546040516001600160a01b0390911681526020016100ce565b6100ea610182366004611835565b6105f3565b6100c1610772565b6100ea61019d3660046118eb565b6108be565b6101b56101b0366004611942565b6108fc565b6040516100ce94939291906119b9565b6101cd610f01565b6040519081526020016100ce565b6102066040518060800160405280606081526020016060815260200160608152602001600081525090565b604080516002805460a06020820284018101909452608083018181529293919284929091849184018282801561026557602002820191906000526020600020905b81546001600160a01b03168152600190910190602001808311610247575b50505050508152602001600182018054806020026020016040519081016040528092919081815260200182805480156102bd57602002820191906000526020600020905b8154815260200190600101908083116102a9575b505050505081526020016002820180548060200260200160405190810160405280929190818152602001828054801561031557602002820191906000526020600020905b815481526020019060010190808311610301575b50505050508152602001600382015481525050905090565b336000908152600a602052604090205460ff166103895760405162461bcd60e51b81526020600482015260156024820152744e6f7420617574686f72697a6564206f7261636c6560581b60448201526064015b60405180910390fd5b610391610f10565b848314801561039f57508281145b6103e45760405162461bcd60e51b8152602060048201526016602482015275082e4e4c2f240d8cadccee8d0e640dad2e6dac2e8c6d60531b6044820152606401610380565b60405180608001604052808787808060200260200160405190810160405280939291908181526020018383602002808284376000920191909152505050908252506040805160208781028281018201909352878252928301929091889188918291850190849080828437600092019190915250505090825250604080516020858102828101820190935285825292830192909186918691829185019084908082843760009201919091525050509082525042602091820152815180516006926104b192849291019061164f565b5060208281015180516104ca92600185019201906116b4565b50604082015180516104e69160028401916020909101906116b4565b50606082015181600301559050506104fc610f3a565b61050560018055565b505050505050565b61051561148a565b6001600160a01b0382166105645760405162461bcd60e51b8152602060048201526016602482015275496e76616c6964206f7261636c65206164647265737360501b6044820152606401610380565b6001600160a01b0382166000818152600a6020908152604091829020805460ff191685151590811790915591519182527f94c9cbe1d9aa7af08484f82ab0179d6db973a391236668c34192d954ff32c06c910160405180910390a25050565b6105cb61148a565b6105d560006114b7565b565b60008060006105e4611507565b61290481101594909350915050565b336000908152600a602052604090205460ff1661064a5760405162461bcd60e51b81526020600482015260156024820152744e6f7420617574686f72697a6564206f7261636c6560581b6044820152606401610380565b610652610f10565b848314801561066057508281145b6106a55760405162461bcd60e51b8152602060048201526016602482015275082e4e4c2f240d8cadccee8d0e640dad2e6dac2e8c6d60531b6044820152606401610380565b60405180608001604052808787808060200260200160405190810160405280939291908181526020018383602002808284376000920191909152505050908252506040805160208781028281018201909352878252928301929091889188918291850190849080828437600092019190915250505090825250604080516020858102828101820190935285825292830192909186918691829185019084908082843760009201919091525050509082525042602091820152815180516002926104b192849291019061164f565b61079d6040518060800160405280606081526020016060815260200160608152602001600081525090565b604080516006805460a060208202840181019094526080830181815292939192849290918491840182828015610265576020028201919060005260206000209081546001600160a01b031681526001909101906020018083116102475750505050508152602001600182018054806020026020016040519081016040528092919081815260200182805480156102bd57602002820191906000526020600020908154815260200190600101908083116102a957505050505081526020016002820180548060200260200160405190810160405280929190818152602001828054801561031557602002820191906000526020600020908154815260200190600101908083116103015750505050508152602001600382015481525050905090565b6108c661148a565b6001600160a01b0381166108f057604051631e4fbdf760e01b815260006004820152602401610380565b6108f9816114b7565b50565b6060806060806000805b600b5481101561098d5787600b828154811061092457610924611a53565b90600052602060002090600a02016000015410158015610968575086600b828154811061095357610953611a53565b90600052602060002090600a02016000015411155b1561097b578161097781611a7f565b9250505b8061098581611a7f565b915050610906565b508067ffffffffffffffff8111156109a7576109a7611a98565b6040519080825280602002602001820160405280156109d0578160200160208202803683370190505b5094508067ffffffffffffffff8111156109ec576109ec611a98565b604051908082528060200260200182016040528015610a15578160200160208202803683370190505b5093508067ffffffffffffffff811115610a3157610a31611a98565b604051908082528060200260200182016040528015610a8d57816020015b610a7a6040518060800160405280606081526020016060815260200160608152602001600081525090565b815260200190600190039081610a4f5790505b5092508067ffffffffffffffff811115610aa957610aa9611a98565b604051908082528060200260200182016040528015610b0557816020015b610af26040518060800160405280606081526020016060815260200160608152602001600081525090565b815260200190600190039081610ac75790505b5091506000805b600b5481108015610b1c57508282105b15610ef55788600b8281548110610b3557610b35611a53565b90600052602060002090600a02016000015410158015610b79575087600b8281548110610b6457610b64611a53565b90600052602060002090600a02016000015411155b15610ee357600b8181548110610b9157610b91611a53565b90600052602060002090600a020160000154878381518110610bb557610bb5611a53565b602002602001018181525050600b8181548110610bd457610bd4611a53565b90600052602060002090600a020160010154868381518110610bf857610bf8611a53565b602002602001018181525050600b8181548110610c1757610c17611a53565b90600052602060002090600a020160020160405180608001604052908160008201805480602002602001604051908101604052809291908181526020018280548015610c8c57602002820191906000526020600020905b81546001600160a01b03168152600190910190602001808311610c6e575b5050505050815260200160018201805480602002602001604051908101604052809291908181526020018280548015610ce457602002820191906000526020600020905b815481526020019060010190808311610cd0575b5050505050815260200160028201805480602002602001604051908101604052809291908181526020018280548015610d3c57602002820191906000526020600020905b815481526020019060010190808311610d28575b50505050508152602001600382015481525050858381518110610d6157610d61611a53565b6020026020010181905250600b8181548110610d7f57610d7f611a53565b90600052602060002090600a020160060160405180608001604052908160008201805480602002602001604051908101604052809291908181526020018280548015610df457602002820191906000526020600020905b81546001600160a01b03168152600190910190602001808311610dd6575b5050505050815260200160018201805480602002602001604051908101604052809291908181526020018280548015610e4c57602002820191906000526020600020905b815481526020019060010190808311610e38575b5050505050815260200160028201805480602002602001604051908101604052809291908181526020018280548015610ea457602002820191906000526020600020905b815481526020019060010190808311610e90575b50505050508152602001600382015481525050848381518110610ec957610ec9611a53565b60200260200101819052508180610edf90611a7f565b9250505b80610eed81611a7f565b915050610b0c565b50505092959194509250565b6000610f0b611507565b905090565b600260015403610f3357604051633ee5aeb560e01b815260040160405180910390fd5b6002600155565b6000610f9760028001805480602002602001604051908101604052809291908181526020018280548015610f8d57602002820191906000526020600020905b815481526020019060010190808311610f79575b5050505050611601565b90506000610ff56006600201805480602002602001604051908101604052809291908181526020018280548015610f8d5760200282019190600052602060002090815481526020019060010190808311610f79575050505050611601565b90506000611001611507565b60408051858152602081018590529081018290524260608201529091507f3455e9b2afdbab6bca3270284bc11feed7e59c631426181cdca4d83a221cf6189060800160405180910390a1600b60405180608001604052804281526020018381526020016002604051806080016040529081600082018054806020026020016040519081016040528092919081815260200182805480156110ca57602002820191906000526020600020905b81546001600160a01b031681526001909101906020018083116110ac575b505050505081526020016001820180548060200260200160405190810160405280929190818152602001828054801561112257602002820191906000526020600020905b81548152602001906001019080831161110e575b505050505081526020016002820180548060200260200160405190810160405280929190818152602001828054801561117a57602002820191906000526020600020905b815481526020019060010190808311611166575b5050505050815260200160038201548152505081526020016006604051806080016040529081600082018054806020026020016040519081016040528092919081815260200182805480156111f857602002820191906000526020600020905b81546001600160a01b031681526001909101906020018083116111da575b505050505081526020016001820180548060200260200160405190810160405280929190818152602001828054801561125057602002820191906000526020600020905b81548152602001906001019080831161123c575b50505050508152602001600282018054806020026020016040519081016040528092919081815260200182805480156112a857602002820191906000526020600020905b815481526020019060010190808311611294575b50505091835250506003919091015460209182015291528254600181810185556000948552938290208351600a90920201908155828201519381019390935560408201518051805193949391926002850192611307928492019061164f565b50602082810151805161132092600185019201906116b4565b506040820151805161133c9160028401916020909101906116b4565b506060918201516003909101558201518051805160068401916113649183916020019061164f565b50602082810151805161137d92600185019201906116b4565b50604082015180516113999160028401916020909101906116b4565b5060608201518160030155505050506127d8811015611418576040805160808082526008908201526710d492551250d05360c21b60a082015260208101839052908101849052606081018390527f22cf542d4edec5f18294987d215cf08f3538eb6b92ae17bb6b78900977f6899b9060c00160405180910390a1505050565b6129048110156114855760408051608080825260099082015268484947485f5249534b60b81b60a082015260208101839052908101849052606081018390527f22cf542d4edec5f18294987d215cf08f3538eb6b92ae17bb6b78900977f6899b9060c00160405180910390a15b505050565b6000546001600160a01b031633146105d55760405163118cdaa760e01b8152336004820152602401610380565b600080546001600160a01b038381166001600160a01b0319831681178455604051919092169283917f8be0079c531659141344cd1fd0a4f28419497f9722a3daafe3b4186f6b6457e09190a35050565b6004805460408051602080840282018101909252828152600093849361155e93830182828015610f8d5760200282019190600052602060002090815481526020019060010190808311610f79575050505050611601565b905060006115bc6006600201805480602002602001604051908101604052809291908181526020018280548015610f8d5760200282019190600052602060002090815481526020019060010190808311610f79575050505050611601565b9050806000036115ea57600082116115d6576127106115e3565b6115e36127106002611aae565b9250505090565b806115f761271084611aae565b6115e39190611acb565b600080805b83518110156116485783818151811061162157611621611a53565b6020026020010151826116349190611aed565b91508061164081611a7f565b915050611606565b5092915050565b8280548282559060005260206000209081019282156116a4579160200282015b828111156116a457825182546001600160a01b0319166001600160a01b0390911617825560209092019160019091019061166f565b506116b09291506116ef565b5090565b8280548282559060005260206000209081019282156116a4579160200282015b828111156116a45782518255916020019190600101906116d4565b5b808211156116b057600081556001016116f0565b600081518084526020808501945080840160005b8381101561173457815187529582019590820190600101611718565b509495945050505050565b8051608080845281519084018190526000916020919082019060a0860190845b818110156117845783516001600160a01b03168352928401929184019160010161175f565b50508285015191508581038387015261179d8183611704565b92505050604083015184820360408601526117b88282611704565b915050606083015160608501528091505092915050565b6020815260006117e2602083018461173f565b9392505050565b60008083601f8401126117fb57600080fd5b50813567ffffffffffffffff81111561181357600080fd5b6020830191508360208260051b850101111561182e57600080fd5b9250929050565b6000806000806000806060878903121561184e57600080fd5b863567ffffffffffffffff8082111561186657600080fd5b6118728a838b016117e9565b9098509650602089013591508082111561188b57600080fd5b6118978a838b016117e9565b909650945060408901359150808211156118b057600080fd5b506118bd89828a016117e9565b979a9699509497509295939492505050565b80356001600160a01b03811681146118e657600080fd5b919050565b6000602082840312156118fd57600080fd5b6117e2826118cf565b6000806040838503121561191957600080fd5b611922836118cf565b91506020830135801515811461193757600080fd5b809150509250929050565b6000806040838503121561195557600080fd5b50508035926020909101359150565b600081518084526020808501808196508360051b8101915082860160005b858110156119ac57828403895261199a84835161173f565b98850198935090840190600101611982565b5091979650505050505050565b6080815260006119cc6080830187611704565b6020838203818501526119df8288611704565b915083820360408501528186518084528284019150828160051b85010183890160005b83811015611a3057601f19878403018552611a1e83835161173f565b94860194925090850190600101611a02565b50508681036060880152611a448189611964565b9b9a5050505050505050505050565b634e487b7160e01b600052603260045260246000fd5b634e487b7160e01b600052601160045260246000fd5b600060018201611a9157611a91611a69565b5060010190565b634e487b7160e01b600052604160045260246000fd5b8082028115828204841417611ac557611ac5611a69565b92915050565b600082611ae857634e487b7160e01b600052601260045260246000fd5b500490565b80820180821115611ac557611ac5611a6956fea26469706673582212206fa31fb6f02402245f9c88816b6077c42daf8bf4bda02c209e527de501ff70da64736f6c63430008140033",
  "linkReferences": {},
  "deployedLinkReferences": {}
}