{
  "_format": "hh-sol-artifact-1",
  "contractName": "SolvencyProof",
  "sourceName": "contracts/SolvencyProof/SolvencyProof.sol",
  "abi": [
    {
      "inputs": [],
      "stateMutability": "nonpayable",
      "type": "constructor"
    },
    {
      "inputs": [
        {
          "internalType": "address",
          "name": "owner",
          "type": "address"
        }
      ],
      "name": "OwnableInvalidOwner",
      "type": "error"
    },
    {
      "inputs": [
        {
          "internalType": "address",
          "name": "account",
          "type": "address"
        }
      ],
      "name": "OwnableUnauthorizedAccount",
      "type": "error"
    },
    {
      "inputs": [],
      "name": "ReentrancyGuardReentrantCall",
      "type": "error"
    },
    {
      "anonymous": false,
      "inputs": [
        {
          "indexed": true,
          "internalType": "address",
          "name": "oracle",
          "type": "address"
        },
        {
          "indexed": false,
          "internalType": "bool",
          "name": "authorized",
          "type": "bool"
        }
      ],
      "name": "OracleUpdated",
      "type": "event"
    },
    {
      "anonymous": false,
      "inputs": [
        {
          "indexed": true,
          "internalType": "address",
          "name": "previousOwner",
          "type": "address"
        },
        {
          "indexed": true,
          "internalType": "address",
          "name": "newOwner",
          "type": "address"
        }
      ],
      "name": "OwnershipTransferred",
      "type": "event"
    },
    {
      "anonymous": false,
      "inputs": [
        {
          "indexed": false,
          "internalType": "string",
          "name": "riskType",
          "type": "string"
        },
        {
          "indexed": false,
          "internalType": "uint256",
          "name": "currentValue",
          "type": "uint256"
        },
        {
          "indexed": false,
          "internalType": "uint256",
          "name": "threshold",
          "type": "uint256"
        },
        {
          "indexed": false,
          "internalType": "uint256",
          "name": "timestamp",
          "type": "uint256"
        }
      ],
      "name": "RiskAlert",
      "type": "event"
    },
    {
      "anonymous": false,
      "inputs": [
        {
          "indexed": false,
          "internalType": "uint256",
          "name": "totalAssets",
          "type": "uint256"
        },
        {
          "indexed": false,
          "internalType": "uint256",
          "name": "totalLiabilities",
          "type": "uint256"
        },
        {
          "indexed": false,
          "internalType": "uint256",
          "name": "solvencyRatio",
          "type": "uint256"
        },
        {
          "indexed": false,
          "internalType": "uint256",
          "name": "timestamp",
          "type": "uint256"
        }
      ],
      "name": "SolvencyMetricsUpdated",
      "type": "event"
    },
    {
      "inputs": [
        {
          "internalType": "address",
          "name": "",
          "type": "address"
        }
      ],
      "name": "assetOracles",
      "outputs": [
        {
          "internalType": "bool",
          "name": "",
          "type": "bool"
        }
      ],
      "stateMutability": "view",
      "type": "function"
    },
    {
      "inputs": [],
      "name": "getProtocolAssets",
      "outputs": [
        {
          "components": [
            {
              "internalType": "address[]",
              "name": "tokens",
              "type": "address[]"
            },
            {
              "internalType": "uint256[]",
              "name": "amounts",
              "type": "uint256[]"
            },
            {
              "internalType": "uint256[]",
              "name": "values",
              "type": "uint256[]"
            },
            {
              "internalType": "uint256",
              "name": "timestamp",
              "type": "uint256"
            }
          ],
          "internalType": "struct ISolvencyProof.ProtocolAssets",
          "name": "",
          "type": "tuple"
        }
      ],
      "stateMutability": "view",
      "type": "function"
    },
    {
      "inputs": [],
      "name": "getProtocolLiabilities",
      "outputs": [
        {
          "components": [
            {
              "internalType": "address[]",
              "name": "tokens",
              "type": "address[]"
            },
            {
              "internalType": "uint256[]",
              "name": "amounts",
              "type": "uint256[]"
            },
            {
              "internalType": "uint256[]",
              "name": "values",
              "type": "uint256[]"
            },
            {
              "internalType": "uint256",
              "name": "timestamp",
              "type": "uint256"
            }
          ],
          "internalType": "struct ISolvencyProof.ProtocolLiabilities",
          "name": "",
          "type": "tuple"
        }
      ],
      "stateMutability": "view",
      "type": "function"
    },
    {
      "inputs": [
        {
          "internalType": "uint256",
          "name": "startTime",
          "type": "uint256"
        },
        {
          "internalType": "uint256",
          "name": "endTime",
          "type": "uint256"
        }
      ],
      "name": "getSolvencyHistory",
      "outputs": [
        {
          "internalType": "uint256[]",
          "name": "timestamps",
          "type": "uint256[]"
        },
        {
          "internalType": "uint256[]",
          "name": "ratios",
          "type": "uint256[]"
        }
      ],
      "stateMutability": "view",
      "type": "function"
    },
    {
      "inputs": [],
      "name": "getSolvencyRatio",
      "outputs": [
        {
          "internalType": "uint256",
          "name": "",
          "type": "uint256"
        }
      ],
      "stateMutability": "view",
      "type": "function"
    },
    {
      "inputs": [],
      "name": "owner",
      "outputs": [
        {
          "internalType": "address",
          "name": "",
          "type": "address"
        }
      ],
      "stateMutability": "view",
      "type": "function"
    },
    {
      "inputs": [],
      "name": "renounceOwnership",
      "outputs": [],
      "stateMutability": "nonpayable",
      "type": "function"
    },
    {
      "inputs": [
        {
          "internalType": "address",
          "name": "oracle",
          "type": "address"
        },
        {
          "internalType": "bool",
          "name": "authorized",
          "type": "bool"
        }
      ],
      "name": "setOracle",
      "outputs": [],
      "stateMutability": "nonpayable",
      "type": "function"
    },
    {
      "inputs": [
        {
          "internalType": "address",
          "name": "newOwner",
          "type": "address"
        }
      ],
      "name": "transferOwnership",
      "outputs": [],
      "stateMutability": "nonpayable",
      "type": "function"
    },
    {
      "inputs": [
        {
          "internalType": "address[]",
          "name": "tokens",
          "type": "address[]"
        },
        {
          "internalType": "uint256[]",
          "name": "amounts",
          "type": "uint256[]"
        },
        {
          "internalType": "uint256[]",
          "name": "values",
          "type": "uint256[]"
        }
      ],
      "name": "updateAssets",
      "outputs": [],
      "stateMutability": "nonpayable",
      "type": "function"
    },
    {
      "inputs": [
        {
          "internalType": "address[]",
          "name": "tokens",
          "type": "address[]"
        },
        {
          "internalType": "uint256[]",
          "name": "amounts",
          "type": "uint256[]"
        },
        {
          "internalType": "uint256[]",
          "name": "values",
          "type": "uint256[]"
        }
      ],
      "name": "updateLiabilities",
      "outputs": [],
      "stateMutability": "nonpayable",
      "type": "function"
    },
    {
      "inputs": [],
      "name": "verifySolvency",
      "outputs": [
        {
          "internalType": "bool",
          "name": "isSolvent",
          "type": "bool"
        },
        {
          "internalType": "uint256",
          "name": "healthFactor",
          "type": "uint256"
        }
      ],
      "stateMutability": "view",
      "type": "function"
    }
  ],
  "bytecode": "0x608060405234801561001057600080fd5b50338061003757604051631e4fbdf760e01b81526000600482015260240160405180910390fd5b6100408161004a565b506001805561009a565b600080546001600160a01b038381166001600160a01b0319831681178455604051919092169283917f8be0079c531659141344cd1fd0a4f28419497f9722a3daafe3b4186f6b6457e09190a35050565b6113bc806100a96000396000f3fe608060405234801561001057600080fd5b50600436106100b45760003560e01c80638da5cb5b116100715780638da5cb5b14610159578063c7a85d1e14610174578063e117a76514610187578063f2fde38b1461018f578063f8a66851146101a2578063fefa625f146101c357600080fd5b8063148c74c9146100b957806319e7476b146100d75780632b663986146100ec578063653608431461011f578063715018a6146101325780638b88b7e21461013a575b600080fd5b6100c16101d9565b6040516100ce919061111d565b60405180910390f35b6100ea6100e536600461117c565b61032b565b005b61010f6100fa366004611232565b600b6020526000908152604090205460ff1681565b60405190151581526020016100ce565b6100ea61012d36600461124d565b610426565b6100ea6104dc565b6101426104f0565b6040805192151583526020830191909152016100ce565b6000546040516001600160a01b0390911681526020016100ce565b6100ea61018236600461117c565b610523565b6100c16106ed565b6100ea61019d366004611232565b610839565b6101b56101b0366004611289565b610877565b6040516100ce9291906112ab565b6101cb610ab6565b6040519081526020016100ce565b6102046040518060800160405280606081526020016060815260200160608152602001600081525090565b604080516002805460a06020820284018101909452608083018181529293919284929091849184018282801561026357602002820191906000526020600020905b81546001600160a01b03168152600190910190602001808311610245575b50505050508152602001600182018054806020026020016040519081016040528092919081815260200182805480156102bb57602002820191906000526020600020905b8154815260200190600101908083116102a7575b505050505081526020016002820180548060200260200160405190810160405280929190818152602001828054801561031357602002820191906000526020600020905b8154815260200190600101908083116102ff575b50505050508152602001600382015481525050905090565b336000908152600b602052604090205460ff166103875760405162461bcd60e51b81526020600482015260156024820152744e6f7420617574686f72697a6564206f7261636c6560581b60448201526064015b60405180910390fd5b61038f610ac5565b848314801561039d57508281145b6103e25760405162461bcd60e51b8152602060048201526016602482015275082e4e4c2f240d8cadccee8d0e640dad2e6dac2e8c6d60531b604482015260640161037e565b6103ee60068787610f0f565b506103fb60078585610f72565b5061040860088383610f72565b5042600955610415610aef565b61041e60018055565b505050505050565b61042e610d5d565b6001600160a01b03821661047d5760405162461bcd60e51b8152602060048201526016602482015275496e76616c6964206f7261636c65206164647265737360501b604482015260640161037e565b6001600160a01b0382166000818152600b6020908152604091829020805460ff191685151590811790915591519182527f94c9cbe1d9aa7af08484f82ab0179d6db973a391236668c34192d954ff32c06c910160405180910390a25050565b6104e4610d5d565b6104ee6000610d8a565b565b60008060006104fd610dda565b905061290481101592508091506127d881101561051e576000939092509050565b509091565b336000908152600b602052604090205460ff1661057a5760405162461bcd60e51b81526020600482015260156024820152744e6f7420617574686f72697a6564206f7261636c6560581b604482015260640161037e565b610582610ac5565b848314801561059057508281145b6105d55760405162461bcd60e51b8152602060048201526016602482015275082e4e4c2f240d8cadccee8d0e640dad2e6dac2e8c6d60531b604482015260640161037e565b60405180608001604052808787808060200260200160405190810160405280939291908181526020018383602002808284376000920191909152505050908252506040805160208781028281018201909352878252928301929091889188918291850190849080828437600092019190915250505090825250604080516020858102828101820190935285825292830192909186918691829185019084908082843760009201919091525050509082525042602091820152815180516002926106a2928492910190610fad565b5060208281015180516106bb9260018501920190611002565b50604082015180516106d7916002840191602090910190611002565b5060608201518160030155905050610415610aef565b6107186040518060800160405280606081526020016060815260200160608152602001600081525090565b604080516006805460a060208202840181019094526080830181815292939192849290918491840182828015610263576020028201919060005260206000209081546001600160a01b031681526001909101906020018083116102455750505050508152602001600182018054806020026020016040519081016040528092919081815260200182805480156102bb57602002820191906000526020600020908154815260200190600101908083116102a757505050505081526020016002820180548060200260200160405190810160405280929190818152602001828054801561031357602002820191906000526020600020908154815260200190600101908083116102ff5750505050508152602001600382015481525050905090565b610841610d5d565b6001600160a01b03811661086b57604051631e4fbdf760e01b81526000600482015260240161037e565b61087481610d8a565b50565b6060806000805b600a548110156109055785600a828154811061089c5761089c6112d9565b906000526020600020906002020160000154101580156108e0575084600a82815481106108cb576108cb6112d9565b90600052602060002090600202016000015411155b156108f357816108ef81611305565b9250505b806108fd81611305565b91505061087e565b508067ffffffffffffffff81111561091f5761091f61131e565b604051908082528060200260200182016040528015610948578160200160208202803683370190505b5092508067ffffffffffffffff8111156109645761096461131e565b60405190808252806020026020018201604052801561098d578160200160208202803683370190505b5091506000805b600a54811080156109a457508282105b15610aab5786600a82815481106109bd576109bd6112d9565b90600052602060002090600202016000015410158015610a01575085600a82815481106109ec576109ec6112d9565b90600052602060002090600202016000015411155b15610a9957600a8181548110610a1957610a196112d9565b906000526020600020906002020160000154858381518110610a3d57610a3d6112d9565b602002602001018181525050600a8181548110610a5c57610a5c6112d9565b906000526020600020906002020160010154848381518110610a8057610a806112d9565b602090810291909101015281610a9581611305565b9250505b80610aa381611305565b915050610994565b5050505b9250929050565b6000610ac0610dda565b905090565b600260015403610ae857604051633ee5aeb560e01b815260040160405180910390fd5b6002600155565b6000610af9610dda565b6040805180820182524281526020808201848152600a8054600181018255600091825293517fc65a7bb8d6351c1cf70c95a316cc6a92839c986682d98bc35f958f4883f9d2a860029095029485015590517fc65a7bb8d6351c1cf70c95a316cc6a92839c986682d98bc35f958f4883f9d2a990930192909255600480548451818402810184019095528085529495509193610bc9939291830182828015610bbf57602002820191906000526020600020905b815481526020019060010190808311610bab575b5050505050610ec1565b90506000610c276006600201805480602002602001604051908101604052809291908181526020018280548015610bbf5760200282019190600052602060002090815481526020019060010190808311610bab575050505050610ec1565b60408051848152602081018390529081018590524260608201529091507f3455e9b2afdbab6bca3270284bc11feed7e59c631426181cdca4d83a221cf6189060800160405180910390a16127d8831015610ce95760408051608080825260119082015270435249544943414c5f534f4c56454e435960781b60a0820152602081018590526127d88183015242606082015290517f22cf542d4edec5f18294987d215cf08f3538eb6b92ae17bb6b78900977f6899b9181900360c00190a1505050565b612904831015610d5857604080516080808252600c908201526b4c4f575f534f4c56454e435960a01b60a0820152602081018590526129048183015242606082015290517f22cf542d4edec5f18294987d215cf08f3538eb6b92ae17bb6b78900977f6899b9181900360c00190a15b505050565b6000546001600160a01b031633146104ee5760405163118cdaa760e01b815233600482015260240161037e565b600080546001600160a01b038381166001600160a01b0319831681178455604051919092169283917f8be0079c531659141344cd1fd0a4f28419497f9722a3daafe3b4186f6b6457e09190a35050565b60048054604080516020808402820181019092528281526000938493610e3193830182828015610bbf5760200282019190600052602060002090815481526020019060010190808311610bab575050505050610ec1565b90506000610e8f6006600201805480602002602001604051908101604052809291908181526020018280548015610bbf5760200282019190600052602060002090815481526020019060010190808311610bab575050505050610ec1565b905080600003610ea3576000199250505090565b80610eb061271084611334565b610eba9190611351565b9250505090565b600080805b8351811015610f0857838181518110610ee157610ee16112d9565b602002602001015182610ef49190611373565b915080610f0081611305565b915050610ec6565b5092915050565b828054828255906000526020600020908101928215610f62579160200282015b82811115610f625781546001600160a01b0319166001600160a01b03843516178255602090920191600190910190610f2f565b50610f6e92915061103d565b5090565b828054828255906000526020600020908101928215610f62579160200282015b82811115610f62578235825591602001919060010190610f92565b828054828255906000526020600020908101928215610f62579160200282015b82811115610f6257825182546001600160a01b0319166001600160a01b03909116178255602090920191600190910190610fcd565b828054828255906000526020600020908101928215610f62579160200282015b82811115610f62578251825591602001919060010190611022565b5b80821115610f6e576000815560010161103e565b600081518084526020808501945080840160005b8381101561108257815187529582019590820190600101611066565b509495945050505050565b8051608080845281519084018190526000916020919082019060a0860190845b818110156110d25783516001600160a01b0316835292840192918401916001016110ad565b5050828501519150858103838701526110eb8183611052565b92505050604083015184820360408601526111068282611052565b915050606083015160608501528091505092915050565b602081526000611130602083018461108d565b9392505050565b60008083601f84011261114957600080fd5b50813567ffffffffffffffff81111561116157600080fd5b6020830191508360208260051b8501011115610aaf57600080fd5b6000806000806000806060878903121561119557600080fd5b863567ffffffffffffffff808211156111ad57600080fd5b6111b98a838b01611137565b909850965060208901359150808211156111d257600080fd5b6111de8a838b01611137565b909650945060408901359150808211156111f757600080fd5b5061120489828a01611137565b979a9699509497509295939492505050565b80356001600160a01b038116811461122d57600080fd5b919050565b60006020828403121561124457600080fd5b61113082611216565b6000806040838503121561126057600080fd5b61126983611216565b91506020830135801515811461127e57600080fd5b809150509250929050565b6000806040838503121561129c57600080fd5b50508035926020909101359150565b6040815260006112be6040830185611052565b82810360208401526112d08185611052565b95945050505050565b634e487b7160e01b600052603260045260246000fd5b634e487b7160e01b600052601160045260246000fd5b600060018201611317576113176112ef565b5060010190565b634e487b7160e01b600052604160045260246000fd5b808202811582820484141761134b5761134b6112ef565b92915050565b60008261136e57634e487b7160e01b600052601260045260246000fd5b500490565b8082018082111561134b5761134b6112ef56fea26469706673582212209c051efb46462f37c63a9cceb7cc0c3454290e0c93c6399c93d46517ae3227bb64736f6c63430008140033",
  "linkReferences": {},
  "deployedLinkReferences": {}
}